:100000000C94E9030C9421040C9421040C94210415
:100010000C9421040C9421040C9421040C942104CC
:100020000C9421040C9421040C94BF2B0C94922C5E
:100030000C9413260C9421040C9421040C94210498
:100040000C9421040C9421040C9421040C9421049C
:100050000C9421040C94CB260C9421040C942104C0
:100060000C9421040C9421040C9421040C9421047C
:100070000C9421040C9421040C9421040C9421046C
:100080000C9421040C9421040C9421040C9421045C
:100090000C9421040C9421040C9421040C9421044C
:1000A0000C9421040C9421040C942104582E5469BE
:1000B00070730001014A0102E101014D01014F018C
:1000C00003E10102E4630103E401014C000102E1E8
:1000D00001014D0103E10102E4630103E401014C6C
:1000E000000102E101014A0103E10102E4630103AD
:1000F000E401012A0014001A00080015001700A9E5
:1001000000AE001C0018000C0012001300040016C2
:1001100000070009000A00AA00AB000B000D000E4A
:10012000000F0028001D001B000600190005001923
:10013000011D0111001000364537462A00E300E298
:1001400000E0002C41E10006011B012C0022522995
:10015000432B444C00240025002600630057000078
:100160000000005500210233023102350021002237
:100170000023002700560000000000540020022F3A
:1001800002300233001E001F0020002A002E004C07
:10019000001C0131002402360237023400E300E281
:1001A00000E0000052582229002B00230F2C0825C4
:1001B0000C260C270C350222022D0223022E0200EF
:1001C00000000025024A0052004D004B001F02347F
:1001D000021E0238022D00000000003800500051BD
:1001E000004F004E002F003000260227022E002D67
:1001F000082E083100501252124F12407EE700E2E2
:1002000000E4003900E500290829083807005251A8
:1002100012427E417E140F1A0F080F150F170F00A0
:100220000000003D042B04D100CD00D200040F16C5
:100230000F070F090F0A0F000000001A011701CF66
:1002400000CE00D0001D0F1B0F060F190F050F5118
:100250000852082B132B01D400D500D9001E0F1F04
:100260000F200F210F220F50084F084A04150100DC
:1002700052D300DA00140D70007100720073000098
:100280000000004200430044004500130D040D6CC3
:10029000006D006E006F00000000003E003F004057
:1002A000004100280D1D0D680069006A006B002DDB
:1002B000012E033A003B003C003D002A0DE700E61A
:1002C00000E400210DE50027012701230D240D2561
:1002D0000D0052437E23782178081C151C171C0042
:1002E0000000002D072E07490065005300257829DE
:1002F00078071C091C0A1C00000000AA00A900487D
:10030000004600470027782078061C191C051C00B1
:10031000000000AC00AB0000521B131213E300E21C
:1003200000E000C852E10000000000A800AE002775
:1003300052260F270F14071A07080715071707007B
:100340000000001C0718070C071207130704071604
:1003500007070709070A07000000000B070D070E33
:10036000070F0728071D071B0706071907050700C2
:1003700000000011071007360700522A071E071F4A
:100380000720072107220700000000230724072574
:100390000726072707140C1A0C080C150C170C005D
:1003A0000000001C0C180C0C0C120C130C040C1686
:1003B0000C070C090C0A0C000000000B0C0D0C0EB5
:1003C0000C0F0C280C1D0C1B0C060C190C050C003A
:1003D000000000110C100C360C370C2A0C1E0C1FE0
:1003E0000C200C210C220C00000000230C007C00CF
:1003F000522F07300714001A0008001500170000DC
:1004000000000057005F00600061006300040016F8
:1004100000070009000A000000000056005C005DB3
:10042000005E0062001D001B000600190005001997
:10043000011D01550059005A005B002A00E700E643
:1004400000E4000052E50006011B01540058222977
:10045000002B004C0000010101010101010101021A
:100460000202020202020202030303030303030364
:10047000040404040404040505050505060606062F
:1004800006070707070708080808090909090A0AEB
:100490000A0B0B0B0C0C0C0D0D0D0E0E0E0F0F0F8F
:1004A000101011111112121313141415151616171A
:1004B00017181819191A1A1B1B1C1D1D1E1E1F2088
:1004C00020212222232424252626272829292A2BD5
:1004D0002C2D2D2E2F3031323233343536373839FA
:1004E0003A3B3C3D3E3F40414243444546474849F4
:1004F0004A4C4D4E4F50515354555658595A5B5DC6
:100500005E5F616264656668696B6C6D6F70727363
:100510007577787A7B7D7E8082838587888A8C8ECA
:100520008F91939596989A9C9EA0A2A3A5A7A9ABFC
:10053000ADAFB1B3B5B7BABCBEC0C2C4C6C9CBCDEE
:10054000CFD1D4D6D8DBDDDFE2E4E7E9EBEEF0F3A0
:10055000F5F8FAFDFF00000000000000002A2B283B
:10056000000000000000000000000000000000008B
:1005700029000000002C1E342021222434262725A7
:100580002E362D3738271E1F2021222324252633DF
:1005900033362E37381F0405060708090A0B0C0DE1
:1005A0000E0F101112131415161718191A1B1C1DF3
:1005B0002F3130232D350405060708090A0B0C0DD1
:1005C0000E0F101112131415161718191A1B1C1DD3
:1005D0002F3130354C00000000000000000000000A
:1005E000000000000000000000000000000000000B
:1005F0000000000000000000007E0F00D4FFFFFF9D
:10060000C7000000782A0358002E005400690070CB
:100610000073002000560034003400550020004BC9
:10062000006500790062006F0061007200640000E4
:1006300000120375006D00750078002E0063006FD6
:10064000006D0000000403090409025B00030100BF
:10065000A0FA0904000001030101000921110100B1
:10066000012244000705810308000109040100027A
:100670000300000009211101000122220007058268
:100680000320000107050303200001090402000103
:100690000300000009211101000122B600070584B2
:1006A00003200001120100020000000862524B4EBC
:1006B0000101010200010660FF0961A10109621543
:1006C0000026FF009520750881020963150026FFAA
:1006D00000952075089102C005010902A10185025B
:1006E0000901A1000509190129081500250195082E
:1006F000750181020501093009311581257F9502B7
:100700007508810609381581257F950175088106D0
:10071000050C0A38021581257F950175088106C0F0
:10072000C005010980A101850319012AB70015013F
:1007300026B700950175108100C0050C0901A101C3
:10074000850419012AA002150126A0029501751041
:100750008100C005010906A1018506050719E029E8
:10076000E715002501950875018102050719002983
:10077000EF1500250195F075018102050819012981
:1007800005950575019102950175039101C005015B
:100790000906A101050719E029E7150025019508BB
:1007A000750181029501750881010507190029FF6E
:1007B000150026FF00950675088100050819012916
:1007C00005150025019505750191029501750391A7
:1007D00001C011241FBECFEFDAE0DEBFCDBF04B6EB
:1007E00003FE18C08091230390912403A091250358
:1007F000B09126038730904BA740B04B59F410922C
:100800002303109224031092250310922603E0E0A4
:10081000F8E3099511E0A0E0B1E0E8E1FFE502C0EE
:1008200005900D92A43FB107D9F723E0A4EFB1E002
:1008300001C01D92A332B207E1F70E9472140C941A
:10084000112F0C94000080E00E94040A882349F0D4
:100850000E94352481FF05C04FEF6FEF80E00E94BA
:10086000C21581E00E94040A882309F45DC04FEF9D
:100870006FEF8FEF0E94C21583E00E94040A882365
:1008800029F04FEF6FEF8FEF0E94C21584E00E94B6
:10089000040A882329F04FEF6FEF8FEF0E94C215F3
:1008A00085E00E94040A882329F04FEF6FEF8FEF55
:1008B0000E94C21586E00E94040A882329F04FEFA7
:1008C0006FEF8FEF0E94C21587E00E94040A882311
:1008D00029F04FEF60E08AE70E94C21588E00E948D
:1008E000040A882329F04FEB60E88FEF0E94C215BD
:1008F00081E00E94040A8823E9F00E94352480FDEB
:1009000007C020E040E06FEF81E090E00E94BC155E
:100910000E94352482FF18C020E040E06FEF80E0A5
:1009200090E00E94BC1510C082E00E94040A811170
:100930009ECFA2CF82E00E94040A8111DECF85E023
:100940000E94040A8111D9CF81E008959C01FB0126
:1009500022348EE7380721F148F420348EE7380737
:1009600079F021343E47A9F081E0089523343E47D1
:10097000D9F785818823C1F360E08CEA90E006C056
:100980008581882389F360E081EE90E00E948E20CB
:10099000EBCF8581882341F360E08DEC90E0F6CFCA
:1009A0008581882309F360E083EB90E0EFCF893005
:1009B000B8F46430A8F44C3098F4E42FF0E09CE0F4
:1009C000699FE00DF11D112490E3899FE00DF11D59
:1009D0001124EE0FFF1FEB50FF4F85919491089566
:1009E00081E090E0089581E008950E94F304089565
:1009F00081E008950E94A604089508950E94FD04D0
:100A00000895A6E0B0E0E7E0F5E00C94812E49837C
:100A10005A839E833091FB0189819A8131111AC0DA
:100A20003E81332399F0222389F00E94DF0A182F98
:100A3000682F89819A810E94BB0A69817A81812FFE
:100A40000E941D122696E3E00C949D2E0E94CD0A72
:100A5000182FF3CF0E94DF0A69817A81F1CFFC0160
:100A6000262F4081518162817381848195810E940A
:100A700001050895CF93DF93D82FC92F61E00E941D
:100A80002F056D2F7C2F0E94F504DF91CF910895E3
:100A9000CF93DF93D82FC92F60E00E942F056D2FD1
:100AA0007C2F0E94FE04DF91CF91089581E008958C
:100AB0000E9456050895CF93C82F0E946F098C2F6E
:100AC0000E9458052FEF84E39CE021508040904025
:100AD000E1F700C00000CF91089581E00E945B051E
:100AE0000E94EF26089580E00E945B050E94132774
:100AF00008950F931F93CF93DF938C0161E00E94C1
:100B00002F05EC01B8010E945222882309F449C044
:100B1000B801CE010E94FA04882309F442C0B8014A
:100B2000CE010E945E218823E1F1B801CE010E942E
:100B30000D1C8823B1F1B801CE010E94E21B88236D
:100B400081F1B801CE010E94A719882351F1B801A3
:100B5000CE010E949F21882321F1F80185818823FD
:100B600081F0CA35FCE7DF0739F178F4C130ECE7F2
:100B7000DE07F9F0C330FCE7DF07C9F0C115DC4739
:100B800071F0C8010E94F8040DC0CB35ECE7DE0718
:100B9000B1F0CC35DC47A9F70E94440FF2CF0E9498
:100BA0006D0580E0DF91CF911F910F9108950E9414
:100BB000560F0E947305F5CF0E944E0FE2CF0E94A0
:100BC000520FDFCF0E94EF250E948A170E94110664
:100BD00081E00E94141808950E94150680E00E948A
:100BE00014180E94F4250895089581E00895089549
:100BF000CF93DF93D82F0E94F505C82F882319F0D3
:100C00008D2F0E94F7058C2FDF91CF9108950895C5
:100C1000CF93C82F0E94F4058C2F0E94F805CF9126
:100C2000089580E00E94080608950E9428240E94EA
:100C300008060895CF930E942824C82F8091F601BA
:100C40008C1779F0C093F6010E947F266093F7011C
:100C50007093F8018093F9019093FA018C2F0E9410
:100C60000806CF910895ADE0B0E0E9E3F6E00C941A
:100C7000822E488759876A877B878C879D87911149
:100C80000E944F0E1F8286E0FE013896DE0111960B
:100C900001900D928A95E1F78D8181110DC0298116
:100CA0003A814B815C816D817E818F810E94950D9F
:100CB0002D96E2E00C949E2ECE0101960E943A05FC
:100CC0008111EDCFF5CFFC018481813021F4808149
:100CD00091810E94110B0895662329F00E947B1DCB
:100CE0000E94511E08950E94D91DFACFCF93C82F9C
:100CF000882399F08CEF8C0F813A88F48C2F0E9416
:100D0000CE24882329F08C2F0E9473250E94E70EA1
:100D10008C2F0E945C250E94E70ECF91089580E2FF
:100D20008C0F883048F4C77081E001C0880FCA95E5
:100D3000EAF70E94300EEFCF8BE58C0F833038F44A
:100D40002C2F2452330BC9010E946124E6CFE8E521
:100D5000EC0FEB3150F4F0E0EE0FFF1FE75AFE4FBF
:100D6000808191810E948724D8CF83E38C0F8331C7
:100D7000A0F661E08C2F0E946C06CFCF882381F112
:100D80009CEF980F913A28F40E9473250E94E70E79
:100D9000089590E2980F983050F4877091E001C068
:100DA000990F8A95EAF7892F0E94360EEFCF9BE5BF
:100DB000980F933028F480E090E00E946124089519
:100DC00098E5980F9B3128F480E090E00E948724FA
:100DD000089593E3980F933118F460E00E946C0635
:100DE00008951F93CF93DF93182FEB010E9476068F
:100DF000209739F4812F0E94BE06DF91CF911F9179
:100E000008958FE99FE00197F1F700C00000219756
:100E1000EFCF60E070E0893311F460E570E00E948C
:100E2000F1060895882321F00E94300E0E94E70EFB
:100E30000895882321F00E94360E0E94E70E08953F
:100E4000A0E0B0E0E6E2F7E00C947C2E6C01D62F37
:100E5000C72FFC011581068102950F700E94250E97
:100E6000E82E8823F9F0E12E1123E1F08C2F807F0A
:100E7000803461F080E28D0F8830F0F08C2F807E1E
:100E8000803221F4D230C0F00023B1F08091EF0223
:100E900082FF12C082E00E94170F0E94250E91E08F
:100EA000E82EE926EC2FE295EF70C03CB0F5F0E0BB
:100EB000ED5EF04D0C94652EE12CF4CF0C2F0F70ED
:100EC000C03110F00295007F112399F0002359F0F2
:100ED00080E28D0F883010F0D11107C0802F0E9462
:100EE000300E0E94E70E8D2F51C0802F0E94410EC0
:100EF000F8CF8D2F0E94BE06002379F080E28D0F7F
:100F0000883010F0D11104C0802F0E94360E03C02B
:100F1000802F0E94470E0E94E70EEE2089F00E946B
:100F2000210E80FD0DC0F60115820E941B0E0E944D
:100F3000180AC6010E9436090E941B0E0E94280A48
:100F4000CDB7DEB7E8E00C94982EFC2FFF70FF2E93
:100F5000C07FC03219F0F29480EFF822DD2341F017
:100F6000D130D1F1112309F444C00023F1F0BBCFFB
:100F70008091EF0282FD15C0112359F0FF2029F066
:100F80008F2D0E94300E0E94E70E80E00E947606B0
:100F9000C4CF80E00E94BE06FF2009F4BECF8F2D93
:100FA000B4CF112369F0011104C08F2D0E941207E4
:100FB000B4CF013009F0B1CF8F2D0E94670EADCFB5
:100FC0000111ABCF8F2D0E9419078F2D0E94730E38
:100FD0008F2D0E94560EA1CF112321F0033008F06F
:100FE0009CCFE3CF023008F098CF8F2D0E941907D5
:100FF00094CF0023D1F3D93349F42FEF87EE93E058
:10100000215080409040E1F700C000008D2F0E94E9
:10101000BE0683CF8C2F869586958370882369F0D2
:10102000813009F07ACF8D2F9C2F9370111102C05F
:1010300080E090E00E94872470CF8D2F9C2F9370CA
:10104000111102C080E090E00E94612466CF612F00
:101050008D2F0E946C0661CF8C2F8370811139C057
:10106000111129C04D2F429546954770440F440FEA
:101070002D2F2F7030E0042E02C0220F331F0A9450
:10108000E2F780E090E0D4FF09C08FE090E002C07A
:10109000880F991F4A95E2F780959095C695C69559
:1010A000C370822B932BC23071F0C33079F0C13002
:1010B00039F00E94CA090E9428240E9408062DCFF8
:1010C0000E94C109F8CF0E94D309F5CF0E94BE0942
:1010D000F2CF112361F1C0FFEECF4D2F429546951F
:1010E0004770440F440F2D2F2F7030E0042E02C0A4
:1010F000220F331F0A94E2F780E090E0D4FF09C08A
:101100008FE090E002C0880F991F4A95E2F7809522
:101110009095C695C695C370822B932BC23069F00B
:10112000C33071F0C13031F00E94530AC4CF823015
:1011300010F2D3CF0E944A0ABECF0E945C0ABBCFF6
:101140000E94E209B8CFCF70112339F08C2F0E9492
:10115000180A8D2F0E941207AECF8D2F0E941907FB
:101160008C2F0E94280AA7CFD23F31F170F4D03FD4
:10117000B9F0D13FB1F1112309F44EC0002309F4B5
:1011800048C08D2F0E94760696CFD33FE1F0D43F22
:1011900021F11111F3CF01114DC08C2F8F71E1CFCF
:1011A000112341F0023008F086CF8C2F8F710E94FE
:1011B0003A0A81CF0230F7CF8C2F8F711111D1CF26
:1011C0000E94180A78CF112329F08C2F8F710E946A
:1011D0000C0A71CF0E94E9096ECF8091EF0282FD67
:1011E00006C08C2F8F71112309F4BBCFE9CF1123D7
:1011F00031F063E08C2F8F710E94F90E5CCF81E09B
:101200000E94170F023008F456CF82E00E94170F99
:1012100052CF8C2F8F71D4CF002309F4BECFD93396
:1012200049F4EFEFF7EE23E0E150F0402040E1F722
:1012300000C000008D2F0E94BE063DCF0F931F936C
:10124000CF93DF93EC01688179818D810E941E0B21
:101250008C010E94650A0E94BD09B801CE010E945E
:101260002007DF91CF911F910F910895CF93DF93C6
:10127000EC018C81882399F0CE010E9479058111BF
:1012800011C00E94250E882351F08D81882339F0EA
:101290008091EF0282FF03C082E00E94170FDF916E
:1012A000CF910895CE010E941E09CE010E944805EB
:1012B000F6CF80E090E00E94612480E090E00E9400
:1012C00087240E944F0E0E94E70E0E946E1E0E940D
:1012D000511E08950E948A250E94590908950E946E
:1012E0003E0E0E946A090895282F92959F709630AD
:1012F00091F060F4925F9F70923030F481E0203F73
:1013000079F030F4283E30F080E008959A5FF3CF12
:10131000243FD1F7089581E0283EE0F3213FF9CF43
:101320000895FC018481882339F0808191810E9495
:10133000110B0E947409089580E00895A6E0B0E0C2
:10134000E4EAF9E00C94822E2696E2E00C949E2EBC
:10135000A7E0B0E0EEEAF9E00C94822E2796E2E0F6
:101360000C949E2E08950E94B20908950E94B3091C
:101370009093170280931602089508950E94B6096B
:1013800008952091160230911702822B932B0E9410
:10139000B6090895209116023091170282239323F3
:1013A0000E94B609089520911602309117028227F3
:1013B00093270E94B60908950E94B20908950E94D9
:1013C000DC0908950E94DF099093150280931402AE
:1013D000089580E090E00E94E20908959C01892B25
:1013E00029F481E0662379F080E00DC081E090E08F
:1013F000AC0102C0440F551F6A95E2F7BA0162239F
:101400007323672B89F30895682F809114029091BC
:1014100015020E94EE09089521E030E0A90102C002
:10142000440F551F8A95E2F7CA010E94E209089508
:1014300021E030E002C0220F331F8A95E2F780914D
:10144000140290911502822B932B0E94E2090895B9
:1014500021E030E002C0220F331F8A95E2F7209589
:1014600030958091140290911502822393230E945B
:10147000E209089521E030E002C0220F331F8A956F
:10148000E2F78091140290911502822793270E941F
:10149000E20908952091140230911502822B932BBA
:1014A0000E94E209089520911402309115028223CE
:1014B00093230E94E20908952091140230911502AD
:1014C000822793270E94E209089508959B0167707F
:1014D00091E001C0990F6A95EAF763E03695279588
:1014E0006A95E1F7220F331F220F331FFA01E20F33
:1014F000F31F40E050E0682F70E08191DF01119709
:101500009B01042E02C0369527950A94E2F72170BC
:1015100021952827292328272C934F5F5F4F44309C
:10152000510559F708959C01982F977083E03695DF
:1015300027958A95E1F7220F331F220F331FFB01F6
:10154000E20FF31F40E050E080E0219130E0092EEF
:1015500002C0369527950A94E2F721703327042EAE
:1015600001C0220F0A94EAF7822B4F5F5F4F44308D
:10157000510559F70895282F862F943068F42C30A0
:1015800058F4622F70E02CE0929F600D711D1124C1
:101590004CEF51E00E94660A0895292F943068F4B8
:1015A0008C3058F490E06CEF71E03CE0239F800DAC
:1015B000911D11240E94930A089580E00895A0E0EF
:1015C000B0E0E5EEFAE00C947B2E8C01E090140282
:1015D000F09015028091160290911702E82AF92ADC
:1015E000C8E0D0E0CC24C394D12CC6010C2E02C09C
:1015F000880F991F0A94E2F78E219F21892B49F4C5
:10160000219798F7B12C8B2DCDB7DEB7E9E00C947C
:10161000972EBC2EB8018C2F0E942912019781F3BE
:10162000F2CFCF93DF93D82FC92F0E94DF0A6D2FFF
:101630007C2F0E942912DF91CF9108951F93CF93A1
:10164000DF93162FD72F9091FB01992341F0862F1E
:10165000972F0E94110BDF91CF911F91089588233E
:1016600081F0862F972F0E94DF0AC82F682F812FC5
:101670009D2F0E94BB0A612F7D2F8C2F0E94291263
:10168000EACF862F972F0E94CD0AC82FF4CFFC01F6
:1016900081E090E0DC0102C0AA0FBB1F6A95E2F76F
:1016A000BD01DC0102C0AA0FBB1F4A95E2F76A2BFD
:1016B0007B2B02C0880F991F2A95E2F79B012E23EE
:1016C0003F232617370719F48E2B9F2B08958095FB
:1016D00090958E239F230895242F462F682F809165
:1016E0001402909115020E94470B0E94E20908958E
:1016F0000F931F93CF93E0911802C7E080911902D6
:101700008E1304C0CF911F910F9108950E2F10E0FA
:10171000CE9FF0011124E65EFD4F20813181428190
:1017200053816481758186810E94A809F8013196F0
:10173000E770E4CF2091520230915302409154025D
:101740005091550260915602709157028091580253
:101750000E94A809089580915802803178F4809100
:101760005702882359F0E091180220911902309114
:1017700053024091520257E02E1301C008956E2F7C
:1017800070E05E9FF0011124DF01A65EBD4F14964C
:101790008C911497882361F111968C911197831382
:1017A00027C08C91841324C015968C9115978111B4
:1017B0001FC012968D919C91A0915402B091550238
:1017C0008A1B9B0B883C910598F4809158028F707E
:1017D000806180935802E05EFD4F80818F70806150
:1017E000808382E592E00E9436090E94780B08957A
:1017F000FB013196E770C0CFE09118029091190279
:1018000027E0E91302C080E00895AE2FB0E02E9FDC
:10181000F0011124E65EFD4F3181361306C03081A0
:10182000381303C03581341304C0FD013196E770CD
:10183000E8CF81E008958F929F92AF92BF92DF929E
:10184000EF92FF920F931F93CF93DF93CDB7DEB745
:101850002D970FB6F894DEBF0FBECDBF8C0186E08A
:10186000F801DE01189601900D928A95E1F7F801D2
:10187000E080F580A280B380848192E5892E92E099
:10188000992E9091560291111BC0882309F4FCC037
:10189000FF2009F43DC1C8010E949109882309F481
:1018A00037C187E0F801D40101900D928A95E1F7E4
:1018B000C4010E9463060E94AB0B0E949A0BE4C015
:1018C000D09057022091540230915502A501421B3D
:1018D000530BDD2009F4DBC0483C510508F0A6C0DD
:1018E000882309F4D1C090915302918080915802CD
:1018F000803108F06BC0991228C0909152029E115D
:1019000024C0F1105DC08F708061809358020E94E6
:101910009A0B82E592E00E94360980915802F80104
:101920008683F12C8F2D2D960FB6F894DEBF0FBE57
:10193000CDBFDF91CF911F910F91FF90EF90DF907E
:10194000BF90AF909F908F900895F11039C040E004
:10195000692D8E2D0E94FC0B40E0692D8E2D0E947A
:10196000FC0BF82E8111DDCF888599850E94110B23
:10197000292F22952F70903450F49F70223080F0E0
:10198000992399F0F8019681903178F4CBCF2A5FB2
:101990002F70223078F0C8010E943609FD2CC2CF8A
:1019A000992319F0882309F4BDCF805E883008F4AC
:1019B000B9CFF1CF803F08F4B5CF815F8230F7CF48
:1019C00080915802816080935802ABCF991207C072
:1019D000909152029E1103C0FF2009F479C0C80102
:1019E0000E949109882309F493C0FF2009F490C054
:1019F00080915802803288F0209152023091530237
:101A00003A832983BC82AB82909156029D831E82C9
:101A10008F83CE0101960E94360987E0F801A2E586
:101A2000B2E001900D928A95E1F745CF909158026E
:101A30009031A0F4488559856A857B858C859D8584
:101A40000E949E0982E592E00E94360987E0F40137
:101A500011928A95E9F70E949A0B63CF8823A1F02F
:101A60002091530281812813BACF809152028E11A6
:101A7000B6CFF110B4CF9683C8010E94360987E033
:101A8000F40111928A95E9F7FF24F3944BCF483C77
:101A9000510508F041C08823B9F3FF20C9F19091A6
:101AA0005302818198132AC0809152028E1126C060
:101AB0008091580280FD19C08031B8F08683807F04
:101AC000803F39F08681982F907F905F8F70892BAF
:101AD0008683C8010E94360987E0F801A2E5B2E0DA
:101AE00001900D928A95E1F7E8CE87E0F801A2E532
:101AF000B2E001900D928A95E1F7C6CFC8010E942D
:101B0000910981118ACF8091580281608093580297
:101B1000C8010E943609B8CF488559856A857B85FA
:101B20008C859D850E949E0991CFAEE0B0E0EBE9E7
:101B3000FDE00C94812E288739874A875B876C8764
:101B40007D878E87CE0108960E941B0C8823B1F0FA
:101B50006C85662341F0288539854A855B857D85BE
:101B60008E850E94A80917E08091180290911902B1
:101B700089133EC02E96E3E00C949D2E87E0FE0173
:101B80003896DE01119601900D928A95E1F7209129
:101B90001902409118028C85882329F330E0C9018D
:101BA00001968770992750E08417950799F097E080
:101BB000929FD001939FB00D1124A65EBD4FFE01F0
:101BC000319601900D929A95E1F7809319020E9447
:101BD000780BC9CF0E946F09109219021092180257
:101BE00087E0E2E5F2E0DF011D928A95E9F7BBCFDD
:101BF000189FC0011124865E9D4F0E941B0C8823F4
:101C000009F4B8CFE09118021E9FF0011124E65E9E
:101C1000FD4F2081318142815381648175818681AC
:101C20000E94A8098091180290E001968770992778
:101C30008093180299CF809181028695869586952A
:101C40000895809181028770089590918102977024
:101C500081E0911101C080E008958091AD02089566
:101C60009091AD02982B9093AD020895982F909586
:101C70008091AD0289238093AD0208951092AD0248
:101C800008959091AC02982B9093AC020895982FF0
:101C900090958091AC0289238093AC0208951092B4
:101CA000AC02089508950E94520E08959091820208
:101CB000292F2823222331F08095892380938202C3
:101CC0000E94530E089508950E94630E0895909106
:101CD0008302292F2823281729F0982B9093830219
:101CE0000E94640E089590918302292F28232223B5
:101CF00031F080958923809383020E94640E0895B9
:101D000080918302882329F01092830280E00E9450
:101D1000640E0895CF93DF93C091AD028091AC0221
:101D2000C82BD0918302DD2331F00E94AD248111B4
:101D30000E94800ECD2B8C2FDF91CF910895CF93F1
:101D4000DF93C0913801D09139010E948A0E8883B7
:101D5000C0913801D091390148E050E069E772E064
:101D6000CE010E94A92E892B59F088E0FE01A9E737
:101D7000B2E001900D928A95E1F7CE010E943824DD
:101D8000DF91CF910895CF93DF93C0913601D09129
:101D900037010E948A0E8983C0913601D0913701A4
:101DA00040E250E069E572E0CE010E94A92E892B45
:101DB00059F080E2FE01A9E5B2E001900D928A950A
:101DC000E1F7CE010E944324DF91CF9108958091E5
:101DD0005501882339F08091EE0287FF03C00E94ED
:101DE000C30E08950E949F0E089508950E94F50E57
:101DF00008959091EF0292FF11C098E0899F9001A1
:101E00001124622B609381020E94180A8091810242
:101E10008695869586950E94F60E08950E94180A6A
:101E200008951092810280E00E94F60E089590912C
:101E300081028095892380938102282F27702111A8
:101E40000DC0891759F09091EF0292FF07C0869557
:101E5000869586950E94280A0E94110F08959091F8
:101E6000EF0292FB222720F9281769F080FB92F9F4
:101E70009093EF028091EE029091EF020E94780F12
:101E800082E00E94170F08958091EF0282FB88275D
:101E900080F991E089270E942F0F089581E00E9428
:101EA0002F0F089580E00E942F0F08956FEF7FEFAE
:101EB00080E090E00E940B2F089580E090E00E9467
:101EC000D72E853E9E4F19F40E94DA21089580E0B6
:101ED000089582E090E00E94CF2E089583E090E084
:101EE0000E94CF2E089584E090E00E94D72E08959E
:101EF000BC0184E090E00E940B2F0895AB01BC016F
:101F00008FE090E00E94FF2E0895AB01BC0183E1B9
:101F100090E00E94FF2E089560E070E0CB010E94E7
:101F2000850F089560E070E0CB010E947E0F0E9453
:101F30008C0F0895A8E0B0E0E0EAFFE00C94822E58
:101F400065EE7EEF80E090E00E940B2F60E082E083
:101F500090E00E94ED2E81E090E090931702809334
:101F6000160261E083E090E00E94ED2E60E074E1F3
:101F700084E090E00E940B2F60E086E090E00E94F9
:101F8000ED2E60E087E090E00E94ED2E40E050E012
:101F9000BA0188E090E00E94FF2E60E083E290E0CA
:101FA0000E94ED2E60E08CE090E00E94ED2E60E05B
:101FB0008DE090E00E94ED2E19821A821B821C8215
:101FC0001D821E821F82188648E050E067E170E0A3
:101FD000CE0101960E94DD2E40E050E0BA018FE173
:101FE00090E00E94FF2E80E00E94F3210E943222A6
:101FF0000E94920F2896E2E00C949E2E0E949A0F67
:102000000895682F8EE090E00E94ED2E0895A6E0DE
:10201000B0E0EDE0F0E10C94802E0E9473268C017C
:102020008091AE029091AF028017910779F01982EA
:102030001A820E947326BC0149815A8180E090E097
:102040000E9433061093AF020093AE022696E4E09E
:102050000C949C2E0E947F266093BC027093BD025C
:102060008093BE029093BF026093B8027093B9024E
:102070008093BA029093BB020895089508950E9438
:102080003D10089508950E944210089581E293E161
:102090000E9489140E943E100E943F10089581E022
:1020A00008950E944F1008950E944F1008950895BA
:1020B00008950E9457100E94581008950E945D0FC5
:1020C000811102C00E94FE0F0E94690F8093C0021E
:1020D0000E94730F9093EF028093EE020E944F1ABA
:1020E0000E946E0F90E00E94BE09809114029091B0
:1020F00015020E94DF0908950E946A260E9442226A
:102100000E94DA130E945E100E9407060E94FB17CD
:102110000E9443100895A6E0B0E0E1E9F0E10C94DC
:10212000762E0E94511081110CC00E9407100E944F
:102130008A170E948F1E0E941A062696EEE00C94C3
:10214000922E0E94F01320EB822E22E0922E640148
:1021500010E0F601E190F1906F01812F0E942B13A6
:102160001F5F143009F44BC0E816F90691F3809113
:10217000C00281FD0E9434130E945410782E10E09A
:10218000812F0E942B137C01F401A190B1904F018B
:102190008A159B0571F1A826B92600E0CC24C394CA
:1021A000D12CC5018C219D21892BD1F0662463940B
:1021B000C7018C219D21892B09F4612C772059F0CE
:1021C00009831A830E947326BC0149815A8181E0E8
:1021D000962D0E943306462D602F812F0E94C81530
:1021E0000F5FCC0CDD1C0C30E1F6F4013297F1826C
:1021F000E0821F5F143021F60E942A1098CFE81663
:10220000F90609F0B4CF91CF1F93CF93DF930E94CB
:102210002E12EC01811522E5920708F053C08115BA
:1022200040E5940708F0DDC0803E9105F8F48D3C50
:10223000910508F0AEC0883A910580F4853A910581
:1022400008F099C08130910521F00497813A9105F9
:1022500050F4CE01DF91CF911F910895885A9109D2
:102260004B9708F48BC0C0E0D0E0F3CF811550E469
:102270009507F8F4C11580E2D80708F0CBC0C83E36
:10228000D10538F3CE019A9581159F4160F78D2FC6
:102290000E94D212182FCE0199270E942E12212FB0
:1022A00030E0322F2227E901CC27DF71C82BD92B50
:1022B000D0CF99270E942E12CC27DF70C82BD92BA4
:1022C000D06AC7CF803842E59407C8F5803652E51A
:1022D000950708F067C0C03482E5D807B0F08C2FAE
:1022E00086958695877020E2829FC0011124C37075
:1022F00021E030E0A90102C0440F551FCA95E2F762
:10230000EA01C82BD92BDC68A4CFC03252E5D5072F
:1023100008F041C08C2F8695869520E2829FC001EF
:102320001124C37021E030E0A90102C0440F551F01
:10233000CA95E2F7EA01C82BD92BDD688ACF803C29
:1023400052E5950760F48F71C03AD24508F03FC05E
:1023500090E0982F8827EC01C46FD06A7ACF805C18
:102360009245809708F07FCFDC2FCC27CC27DF71F8
:10237000C06FD06A6ECFA497D0646BCFC85AD0E03C
:10238000CC0FDD1FC157DE4F0990D881C02DD4641A
:1023900060CFD0655ECFCF71D0E0DC2FCC27C16F8E
:1023A000D06A57CF86958695877020E2829FC001BC
:1023B0001124C37021E030E0A90102C0440F551F71
:1023C000CA95E2F7EA01C82BD92BDA6842CF0E94FE
:1023D000D212C82FD0E0DC2FCC27CC27DF71D062FF
:1023E00038CF8F710E94D21265E0D695C7956A9555
:1023F000E1F7CF70D0E0DC2FCC27282F30E084FF2E
:1024000005C054E0220F331F5A95E1F7C22BD32B9E
:10241000D0691FCF8D2F8F710E94D212182FCE013D
:1024200099270E942E12212F30E0322F22272227B7
:102430003F71282B392BE901D2CF462F672F7430FB
:1024400028F44C3018F40E94031B089580E090E0BB
:1024500008950E941D120E9404110895803E910566
:10246000D1F1C8F48133910509F47FC048F4893271
:10247000910509F46FC08A32910509F47DC0089571
:1024800089339105E1F082389105C9F085339105D2
:1024900009F45BC00895843E9105D1F148F4823E71
:1024A000910531F1833E910541F181EE90E008956F
:1024B000863E9105C1F1873E9105E1F10895209195
:1024C000EE022370211165C02091EF0223FF14C09A
:1024D00089E290E008952091EE0220FD43C0309102
:1024E000EF0230FF09C024FF4EC080E090E0089565
:1024F0002091EE0222FDF7CF08952091EE0222FDF9
:1025000045C03091EF0230FD44C024FFF5CFEDCF40
:102510002091EF0221FFF0CF8091EE0284FDE5CF04
:1025200087EE90E008952091EE0223FFE5CF24FD91
:10253000DCCFF6CF2091EE0223FD2EC03091EF02CA
:1025400031FFE3CF84EE90E008952091EE0225FF65
:10255000D3CFBECF2091EE0225FD21C02091EF0206
:1025600023FFCACF89E390E008952091EE0226FF71
:10257000C3CF8AE290E008952091EE0226FFBCCFFF
:1025800081E390E0089583EE90E0089582EE90E07C
:10259000089580EE90E0089586EE90E0089585E33A
:1025A00090E0AACF9091EE0292FF10C041E0282F58
:1025B0002471243009F040E031E0282F28712830C0
:1025C00009F030E0431711F02CE0822793FF10C090
:1025D00041E0282F2471243109F040E031E0282F18
:1025E0002871283109F030E0431711F02CE08227E0
:1025F0003091EF0230FF10C051E0282F21712130BF
:1026000009F050E041E0282F2871283009F040E01F
:10261000541711F029E0822731FF10C041E0282F24
:102620002171213109F040E031E0282F2871283153
:1026300009F030E0431711F029E0822794FD877EEE
:10264000089580E0089508950E9423130895089541
:102650000E9427130895E82FF0E0EE0FFF1FE850C7
:10266000FD4F808191810895089580EA8A95F1F760
:10267000089500C008950E9435130895F894E82F36
:10268000E295EF70F0E041A18F7021E030E0B901F8
:1026900002C0660F771F8A95E2F7CB01962F9095BF
:1026A000942391A392A1892B82A378940895CF9328
:1026B000DF9384E30E943E1385E30E943E1382E38E
:1026C0000E943E1386E30E943E13C5ECD1E089913F
:1026D0008F3F11F00E943E1381E0C13DD807B9F74A
:1026E000DF91CF910895A0E0B0E0E9E7F3E10C9429
:1026F0007B2EEC01B62E062F10E0C8018F529E4FA4
:102700007C01FC0180818F3F09F44FC0F894E82FD1
:10271000E295EF70F0E091A18F7021E030E001C010
:10272000220F8A95EAF7892F822B81A382A1209517
:10273000282322A378940E943913E5ECF1E041E0CC
:1027400050E0C12CD12C21912F3F89F0A22FA295CE
:10275000AF70A05EB0E08C9190E02F7002C09595B4
:1027600087952A95E2F781709A01882311F020E07D
:1027700030E0C22AD32A440F551F81E0E13DF8071B
:1027800011F7F70180818F3F11F00E943E1361E045
:10279000C114D10409F460E08B2D0E943B13000F9B
:1027A000111FC00FD11FD982C882CDB7DEB7E9E0B3
:1027B0000C94972E0E94571388E0E8EFF2E0DF01B7
:1027C000982F1D929A95E9F7E0EFF2E0DF011D9254
:1027D0008A95E9F784E00E942D140E94241308953D
:1027E000A8E0B0E0E6EFF3E10C947F2EFE01319615
:1027F00088E0DF011D928A95E9F710E0FE2E0F2F89
:10280000612F8F2D902F0E9473131F5F1430C1F71B
:1028100048E050E06F2D702F80EF92E00E94A92ECB
:1028200021E0892B81F420E044E068EF72E080EF42
:1028300092E00E942E14182F0E942813812F2896B0
:10284000E5E00C949B2E88E0EF2DF02FA0EFB2E096
:1028500001900D928A95E1F7E7CF0895A0E0B0E0EE
:10286000E4E3F4E10C947C2ED82EE92EF62ED72F3B
:10287000042FC22F222379F081E08093C3020E94AB
:1028800073269093C2028093C10280E0CDB7DEB779
:10289000E8E00C94982EC090C302CC20B1F3809154
:1028A000C1029091C2020E949C26059770F310E02D
:1028B000000F111FA8016D2D7E2D8F2D9D2F0E94C1
:1028C000A92E892B41F0A8016D2D7E2D8F2D9D2FD6
:1028D0000E94B62ECC2D1092C3028C2FD7CF0E940F
:1028E0008B1008950E940C260E94AD280E9446106D
:1028F0000E94C7280E947C100E94D4280E94D928D8
:102900000E946F140E94F3280E947B270E94591096
:10291000F5CF9093F5018093F4010895A0E0B0E025
:10292000E4E9F4E10C947A2EE82F71110DC04423F0
:1029300021F0F0E0EB5AFB4F8491682F782FCDB750
:10294000DEB7EAE00C94962E262F30E0C72FD0E0B9
:10295000F0E0442321F0EB5AFB4FE491F0E086E0F5
:10296000829F7001839FF00C11240FEF10E0C701CC
:10297000B8010E943D2EAB01220F331F65E5649F15
:10298000C001659F900D1124281B390BC22ECC0C61
:10299000C20EC8018C1B9D0B8E9F90018F9F300D26
:1029A0009E9F300D1124832FCC9EB001CD9E700DC3
:1029B0001124672F77275801A61AB70AAE9ED001B7
:1029C000AF9EB00DBE9EB00D11247B2F5801AC18E8
:1029D000B1086501CC9E5001CD9EB00CDC9EB00CC0
:1029E0001124AB2CBB240A191B090E9FE0010F9F79
:1029F000D00D1E9FD00D11246E2F43305105C9F00C
:102A00009CEFE91693E0F90650F44130510509F4C2
:102A100096CF4230510589F07E2F6D2F90CF4430F4
:102A2000510571F046305105B9F3632F8B2F7E2F7E
:102A300086CF6B2F732F8E2F82CF732F8D2F7FCF4B
:102A40007D2F632FF8CF41E00E948E1408959C01E2
:102A500080E090E0269F812D369F800D911D1124EE
:102A60000895982FE82F96FDE0958E2F8F7096FD94
:102A70008F5FE695E695E695E670F0E0EB52FE4F47
:102A80002181289F202D812D112422952F70829540
:102A9000807F282B8081820F97FD81958058089533
:102AA000622F08950F93CF93DF93D72FC82FDA01AA
:102AB000F9019B2F90783097C9F037FF04C0222787
:102AC00033272E1B3F0BBD01620F731FB7FD16C0CE
:102AD000CD01821B930B55E0880F991F5A95E1F7A2
:102AE0000E94512E90E2961BF7FD9195602F690F81
:102AF0007D2F8C2FDF91CF910F910895CB0145E071
:102B0000880F991F4A95E1F7B9016A1B7B0B0E9458
:102B1000512E90E6E8CF9091C402982B9093C40276
:102B2000089548E050E067E170E080E093E00E94A3
:102B3000DD2E1092C40208950E94231508950E946C
:102B400091150895E0E0F3E081E1808380915601E2
:102B500090915701A091580181839283A3838AE1C8
:102B600084838FEF85830E9491150895E091E3019E
:102B7000F091E40109950895E091DF01F091E00101
:102B800009950895E091E101F091E2010995089518
:102B90000E944F1008950E942304089591E0980F19
:102BA000933008F092E008958F929F92BF92CF9257
:102BB000DF92EF92FF920F931F93CF93DF936C01FD
:102BC0004B01FC0180810E94CE15C82F192F609106
:102BD0000403669580910803909109030E942715CC
:102BE000B82ED0E0CE01880F991F9C0120503F4F96
:102BF0007901C11780F081E0123008F080E0DF91A8
:102C0000CF911F910F91FF90EF90DF90CF90BF90E9
:102C10009F908F900895FE01E050FF4F84A9F60128
:102C2000918189238823C1F0F70121A92052330B18
:102C300040A94057550B60910103709102038091A8
:102C400003030B2DF40109950E949C15462F672F55
:102C5000282FCE010E94BC15F2E0EF0EF11C219648
:102C6000C8CF62E575E10E94D4150895A0E0B0E0F8
:102C7000ECE3F6E10C947C2E7C016B01FC0180817D
:102C80000E94CE15C82F192F609104036695669592
:102C900021E0620F08F46FEF80910803909109031F
:102CA0000E942715082FD0E0C11748F081E01230AC
:102CB00008F080E0CDB7DEB7E8E00C94982EFE0176
:102CC000E050FF4F84A9F70191818923882391F077
:102CD000609101037091020380910303202F4C2F18
:102CE000F60109950E949C15462F672F282FCE01CB
:102CF0000E94BC152196D8CF60E575E10E9436167A
:102D00000895A0E0B0E0E7E8F6E10C947C2E7C01A9
:102D1000FC0180810E94CE15C82F192F60910103FC
:102D200070910203809103030E949C15062FD72EF9
:102D3000C82ED0E0C11748F081E0123008F080E0E2
:102D4000CDB7DEB7E8E00C94982EFE01E050FF4FBF
:102D500084A9F70191818923882331F02C2D402FFC
:102D60006D2DCE010E94BC152196E4CFA0E0B0E00D
:102D7000ECEBF6E10C947C2E7C01FC0180810E943E
:102D8000CE15C82F192F00910103D0910203D090C6
:102D90000303609104036695669566958091080328
:102DA000909109030E9427150E943115805887FDD4
:102DB0008195880F282F3D2D239F212D1124822FAF
:102DC000602F7D2F0E949C15062FD72EC82ED0E095
:102DD000C11748F081E0123008F080E0CDB7DEB7CF
:102DE000E8E00C94982EFE01E050FF4F84A9F70113
:102DF00091818923882331F02C2D402F6D2DCE0118
:102E00000E94BC152196E4CFCF93C82F80913E013C
:102E10008C1339C020910003237030E040913F01B2
:102E200050E081E02417350709F480E08170809339
:102E30003D018091050390913C01981739F08093F2
:102E40003C0140E060E080E00E94C215C230F1F138
:102E5000E0F4C11127C080913D01882309F445C0E9
:102E600040E060E080E00E94C21580913B018F5FEE
:102E700080933B0182E080933A0180913D01882359
:102E8000C9F1CF91089581E0D1CFC33021F1C43091
:102E900039F180913B018F5F80933B0182E0809309
:102EA0003A01EFCF8BE391E00E94811690913B01B4
:102EB0009F5F90933B018111E4CF82E080933A01C0
:102EC00080913D018111DDCFCC23DACF8BE391E0FE
:102ED0000E94B616EBCF8BE391E00E947C16E6CF02
:102EE0008BE391E00E943116E1CF80913B018F5F2F
:102EF00080933B0183E0D3CF81E008950E947C174B
:102F00000895FC01808181500E94CE15692F0E9496
:102F10007E170895A4E0B0E0E0E9F7E10C94822E7A
:102F20000E947F266093C5027093C6028093C702F9
:102F30009093C8022091C90221111FC02091000363
:102F4000322F33703983332319F026952695298340
:102F500020913A01223051F190F4211116C01092C3
:102F60003B01609308037093090380930A039093D5
:102F70000B0381E080933A0104C01982E9CF23302A
:102F800009F12496E2E00C949E2E89810E94041798
:102F900089818823B1F380913A01823011F40E9433
:102FA000CB158BE391E00E948117EBCF9981909331
:102FB0003E0180910003837080933F010E94B6150B
:102FC00083E0D8CF8091C40281110E949115809135
:102FD000080390910903A0910A03B0910B03BC016F
:102FE000CD010E94AB26603171058105910548F243
:102FF00010923A01C6CFE091DD01F091DE01099512
:1030000081E08093C40248E050E067E170E080E036
:1030100093E00E94BF2E1092C4028091000384307E
:1030200010F40E94A2150895CF93C82F882391F021
:103030008091C90281110EC00E94041710923E01B6
:1030400080910003837080933F010E94B61583E056
:1030500080933A01C093C902CF910895E0E0F3E074
:10306000908121E09227908310923A010E948B1563
:10307000089580E00E942E18089581E00E942E1885
:103080000895809100038370811102C010923A016B
:10309000809100038C7F816080930003089580916C
:1030A00000038370811110923A01809100038C7F9C
:1030B0008093000308958091000383700895982FF2
:1030C000862F209100032370222389F0992381F019
:1030D000953080F49F73990F990F2091000323700E
:1030E000922B9093000310923A010E948B15089541
:1030F00091E0F1CF94E0EFCF60E00E945F18089577
:1031000061E00E945F18089580910003869586957E
:103110000895682F80910003869586958F5F85308E
:1031200008F081E00E945F18089581E00E948918EC
:103130000895682F90910003969596958FEF890FCB
:10314000913009F484E00E945F18089581E00E94A4
:1031500099180895982F822F20910003237022231D
:1031600041F09093010360930203409303030E9494
:103170008B15089520E00E94AA18089580910103FC
:103180000895809102030895809103030895282FE4
:10319000E0E0F3E09181892F90E04381628108961D
:1031A0000E94AA18089581E00E94C7180895282F48
:1031B000E0E0F3E08181438162818850990B0E94B5
:1031C000AA18089581E00E94D7180895282FE0E0FA
:1031D000F3E0628130E1630F08F46FEF8181438196
:1031E00090E00E94AA18089581E00E94E6180895D0
:1031F000282FE0E0F3E0628130E1631B08F460E037
:103200008181438190E00E94AA18089581E00E9484
:10321000F8180895282FE0E0F3E0438130E1430FF0
:1032200008F44FEF8181628190E00E94AA1808950E
:1032300081E00E940A190895282FE0E0F3E043811D
:1032400030E1431B08F440E08181628190E00E94FC
:10325000AA18089581E00E941C1908958093040320
:1032600080E00E948B150895809104030895E0E0AA
:10327000F3E0248130E1230F08F42FEF24830E9430
:103280008B15089581E00E9437190895E0E0F3E07E
:10329000248130E1231B08F420E024830E948B1555
:1032A000089581E00E9446190895CF93DF93DC01D1
:1032B000FC01EE0FFF1FEF01CA0FDB1FC45FDC4FE5
:1032C0008981861306C08881841303C08A8182178E
:1032D00051F081E08093CA02EA0FFB1FE45FFC4FCC
:1032E000618340832283DF91CF9108951F93CF9311
:1032F000DF93C82FD62F142F242F462F682F80E05E
:1033000090E00E945519212F4D2F6C2F81E090E005
:103310000E945519DF91CF911F9108958091CA02A3
:10332000882341F062E070E08CE093E00E94041A90
:103330001092CA0208950E94021A1092CA020895B9
:10334000FA01882311F009950895FB01FCCF1F9322
:10335000CF93DF93EC01FB011581111151C00E9445
:103360002D0E8272FE01E052F847E531F10508F0BA
:1033700047C0E15EF04D0C94652E0E943D18812FF0
:10338000DF91CF911F91089546EA58E165E978E110
:103390000E94A019F4CF45E958E166EA78E1F8CF38
:1033A00042EE58E163ED78E1F3CF43ED58E162EE90
:1033B00078E1EECF46E059E164EF78E1E9CF44EF00
:1033C00058E166E079E1E4CF4AE259E168E179E168
:1033D000DFCF48E159E16AE279E1DACF41E559E12D
:1033E00062E479E1D5CF42E459E161E579E1D0CFFA
:1033F00081E00E948018C3CF82E0FBCF84E0F9CF48
:1034000011E0BDCF529A08959C01AB016BB16B7F67
:103410007BB17460EFB7F894CA01880F991F840FCD
:10342000951F820F931F8217930741F4EFBF8FE51B
:1034300094E00197F1F700C000000895D9014D9183
:103440009D0158E07BB9000000C047FF6BB9440FF5
:10345000000000C000C000C06BB900C05A9591F7D1
:10346000E2CF0E94560F089580E00E942B138170D6
:1034700008950E94F0132FEF86E791E021508040DD
:103480009040E1F700C000000E94F0130E94341A3F
:10349000882321F00E94311A0E94EF2608950E948D
:1034A000391A089589E0089550E0440F551F98E1B6
:1034B000699F400D511D112490E6899F400D511DBB
:1034C0001124CA01889608950F931F93CF93DF9319
:1034D0008930C8F46430B8F44C30A8F40E94541A0F
:1034E0008C010E94CF2EC82FD0E0DC2FCC27C80142
:1034F00001960E94CF2E9E01282BC901DF91CF910A
:103500001F910F91089580E090E0F8CF0F931F93E3
:10351000CF93DF93122F032F893078F4643068F44F
:103520004C3058F40E94541AEC01602F0E94ED2E8A
:10353000612FCE0101960E94ED2EDF91CF911F9158
:103540000F9108951F93CF93DF93D0E0C0E011C097
:10355000412F6C2F8D2F0E94D7049C01412F6C2F7F
:103560008D2F0E94861A1F5F1C3091F7CF5FC430E9
:1035700011F010E0EDCFDF5FD93041F7DF91CF914F
:103580001F910895EF92FF920F931F93CF93DF93B4
:103590008C01EA017A01E60EF71ECE15DF0529F44B
:1035A000CDB7DEB7E6E00C949A2E003683E018071C
:1035B00040F4C80188960E94CF2E89930F5F1F4F59
:1035C000ECCF80E0FACFEF92FF920F931F93CF934F
:1035D000DF938C01EA017A01E60EF71ECE15DF05B6
:1035E00029F4CDB7DEB7E6E00C949A2E003683E0DE
:1035F000180728F46881C80188960E94ED2E21964C
:103600000F5F1F4FEBCF893038F4643028F44C3013
:1036100018F40E94641A089580E090E0089580E113
:10362000089588E790E00895EF92FF920F931F931B
:10363000CF93DF938C01EA017A01E60EF71ECE15D7
:10364000DF0529F4CDB7DEB7E6E00C949A2E80E0D2
:103650000837110528F4C80188579C4F0E94CF2EC7
:1036600089930F5F1F4FEBCFEF92FF920F931F9342
:10367000CF93DF938C01EA017A01E60EF71ECE1597
:10368000DF0529F4CDB7DEB7E6E00C949A2E0837B3
:10369000110530F46881C80188579C4F0E94ED2EB7
:1036A00021960F5F1F4FEBCFCF93DF93C8E8D3E096
:1036B00060E0CE010E94ED2E2196C11584E0D8076E
:1036C000B9F7DF91CF910895A8E0B0E0EAE6FBE119
:1036D0000C947C2EF82E2FE0281708F46FC08FEF83
:1036E00093E00E94CF2E811169C008E813E0F11029
:1036F00038C01A821982FE01339686E0DF011D92DE
:103700008A95E9F76801BFEFCB1ADB0AC8010E946E
:10371000CF2E89831A82882309F450C08130D1F4D6
:10372000780122E0E20EF11CC6010E94CF2E8A83AE
:10373000882309F443C09FEF980F9330F8F4680191
:1037400083E0C80ED11CC7010E94CF2E8B83882333
:10375000A9F11C8260E0CE0101960E94232086011F
:10376000D1CF011584E0180749F1C8010E94CF2E7E
:103770000F5F1F4F8111F5CFFA94B9CF8430B9F4A0
:1037800002E010E0C701AFEFEA1AFA0A0E94CF2E5A
:10379000E1E0F0E0EC0FFD1FE00FF11F80838823D4
:1037A00069F08C3731F4FE01E00FF11F12826701DE
:1037B000D1CF0F5F1F4F0730110521F72896E8E0A2
:1037C0000C94982ECF93DF93EB0186319C4719F52B
:1037D0000E942D0E9D819923A1F08A7A91E081119A
:1037E00001C090E09093CB02882349F085E30E94CA
:1037F0005C250E94E70E80E0DF91CF91089589E279
:10380000F6CF8091CB02882321F085E30E947325B7
:10381000F0CF89E2FBCF81E0EFCFCF93DF93EC01D4
:10382000FB018581882309F4D2C09E0130572332E1
:10383000310508F0B2C00E94730F9093EF0280939D
:10384000EE02FE01E150F047E232F10520F4EC5CBB
:10385000F04D0C94652E8091EE0281608093EE0213
:1038600093C08091EF0288608093EF028DC08091B9
:10387000EE028260F3CF8091EE028460EFCF809100
:10388000EE028860EBCF8091EF028160EDCF8091F6
:10389000EF028260E9CF8091EE028061DFCF8091FC
:1038A000EE028062DBCF8091EE028064D7CF0E946F
:1038B0006F098091EE028068D1CF8091EE028C601A
:1038C000CDCF8091EF028360CFCF8091EE028E7FCB
:1038D000C5CF8091EF02877FC7CF8091EE028D7FA9
:1038E000BDCF8091EE028B7FB9CF8091EE02877FB2
:1038F000B5CF8091EF028E7FB7CF8091EF028D7FA1
:10390000B3CF8091EE028F7EA9CF8091EE028F7DA2
:10391000A5CF8091EE028F7BA1CF0E946F0980918D
:10392000EE028F779BCF8091EE02837F97CF8091BD
:10393000EF028C7F99CF8091EE0282FB992790F95C
:1039400021E0922790FB82F990FB83F987CF809149
:10395000EF02982F909591708E7F892B90FB81F9C3
:1039600083CF9091EE02892F8F7B96FF806476CF74
:103970000E946F099091EE02892F97FB87F980587A
:103980006DCF81E00E9401108091EE029091EF02D4
:103990000E94780F0E946F0980E0DF91CF91089517
:1039A00080E0F0CF9091EE02892F8F7E94FF8061AE
:1039B00055CF9091EE02892F8E7F90FF81604ECF80
:1039C0009091EF02892F877F93FF88604DCF81E030
:1039D000E4CF282F35EB2303C001112497FF04C047
:1039E00080589109892F089580589F4FFBCF80916F
:1039F000D20280FF0DC06091450170E0660F771F15
:103A000060387105C0F561157105B9F1862F08950B
:103A100081FF07C06091450184E0689FB0011124D7
:103A2000EFCF82FF04C06091450188E0F6CF80911E
:103A3000D1028823E9F0909144016091450170E042
:103A4000891730F093E0660F771F9A95E1F7D8CF8A
:103A5000869F9001879F300D112483E0220F331F32
:103A60008A95E1F7692F70E0C9010E94512EC8CFF5
:103A700068E070E0CBCF8FE7089581E008958091F2
:103A8000D20280FF0CC06091410170E0759567958E
:103A9000759567956115710561F1862F089581FF10
:103AA00006C06091410170E075956795F3CF609114
:103AB000410170E082FD15C02091D0022223B1F0B7
:103AC000909140016091410170E0291750F4269FC8
:103AD000A001279F500D1124692F70E0CA010E9498
:103AE000512E60387105B0F28FE7089561E070E003
:103AF000D4CF81E008959091D5022091D602922BE7
:103B00002091D802922B2091D702922B992331F049
:103B100098E09093D10291E09093D0028D3C31F4E3
:103B20000E94F71C81958093D6020895E2E3E80F86
:103B3000E231B0F5F0E0EA5AF04D0C94652E0E94A7
:103B4000F71CF1CF0E94F71C81958093D502089550
:103B50000E94F71CFACF0E943F1D8093D702089560
:103B60000E943F1D8195F9CF0E943F1D8195809352
:103B7000D80208950E943F1DFACF815D990B21E084
:103B800030E001C0220F8A95EAF78091D402822B9F
:103B90008093D40208958091D20281608093D202F2
:103BA00008958091D2028260F9CF8091D202846020
:103BB000F5CF4091D5028D3C59F48091D60287FF14
:103BC0000DC01092D602442359F41092D10208C0BD
:103BD0008E3C81F48091D60218169CF3442381F028
:103BE0008091D7029091D802892B811159C01092EF
:103BF000D00208958F3C41F447FFF0CF1092D502D8
:103C00008091D6028823E0CF803D19F41416B4F3D6
:103C1000E5CF9091D702893D29F41916FCF6109250
:103C2000D702DCCF8A3D19F497FFD8CFF8CF909117
:103C3000D8028B3D29F497FFD1CF1092D802CECF76
:103C40008C3D19F41916CCF3C9CF9FE2980F983028
:103C500090F4815D990B21E030E0B90102C0660F5C
:103C6000771F8A95E2F7CB0180959091D402892342
:103C70008093D402B3CF8D3D31F48091D2028E7FF8
:103C80008093D202ABCF8E3D21F48091D2028D7F02
:103C9000F7CF8F3D09F0A2CF8091D2028B7FF0CF7A
:103CA00008950E9473262091D5023091D602232BCD
:103CB000222321F08093CE029093CF022091D7024D
:103CC0003091D802232B222321F08093CC029093B1
:103CD000CD0283ED92E00E945224089586E0E3ED48
:103CE000F2E0DF011D928A95E9F71092D10210925D
:103CF000D0021092D2020895FC01828181110DC080
:103D0000838181110AC08481811107C081E095817E
:103D1000911101C080E08170089581E0FCCFA6E0A0
:103D2000B0E0E5E9FEE10C947F2E86E0E3EDF2E001
:103D30009E012F5F3F4FD90101900D928A95E1F7C7
:103D40001092D5021092D6021092D7021092D80289
:103D50008B819C81892B8901882391F08091CE02EF
:103D60009091CF020E949C269C018091D1028823D1
:103D7000C9F14091460150E04217530708F43FC093
:103D80008D819E81892B882399F08091CC0290911E
:103D9000CD020E949C269C018091D002882309F4C8
:103DA00067C04091420150E04217530708F46EC0CB
:103DB000B80183ED92E00E94A425811105C083ED36
:103DC00092E00E947C1E81110E94511E86E0F80143
:103DD000A3EDB2E001900D928A95E1F72696E5E019
:103DE0000C949B2E409147019AE0499FA001112419
:103DF0004217530728F68F5F8093D10202C08F3F8E
:103E0000D1F7FB80FF2059F00E94F71C91E01F14AE
:103E10000CF09FEF899F802D11248093D502FC80A8
:103E2000FF2059F00E94F71C91E01F140CF09FEF47
:103E3000899F802D11248093D6028091D5028823FA
:103E400009F49ECFF090D602FF2009F499CF0E948A
:103E5000E91C811101C081E08093D5028F2D0E9461
:103E6000E91C882319F08093D6028ACF81E0FBCF2A
:103E7000409143019AE0499FA00111244217530742
:103E800008F096CF8F5F8093D00202C08F3FD1F7AA
:103E9000FD80FF2059F00E943F1D91E01F140CF09F
:103EA0009FEF899F802D11248093D702FE80FF20F1
:103EB00059F00E943F1D91E01F140CF09FEF899F65
:103EC000802D11248093D8028091D702882309F491
:103ED0006FCFF090D802FF2009F46ACF0E94E91C4E
:103EE000811101C081E08093D7028F2D0E94E91CCF
:103EF000882319F08093D8025BCF81E0FBCFA0E04C
:103F0000B0E0E5E8FFE10C947B2EE82FF0E0EB5AFF
:103F1000FA4FB490282F26952695269530E0F90182
:103F2000EB50FA4F0491877010E0082E02C01595EF
:103F300007950A94E2F701701127F901EB51FA4F46
:103F4000E490F12C082E02C0F594E7940A94E2F76D
:103F500091E0E922FF24F901EB52FA4FC491D0E03D
:103F600002C0D595C7958A95E2F7C170DD27C62EA8
:103F7000D12C0115110549F5E114F10431F086EE5B
:103F80000E947606C601009771F5B6018B2D0E943E
:103F9000F106C601009779F5E114F104A1F50115C8
:103FA000110531F081EE0E94BE06C6010097C9F5E9
:103FB000CD2B31F08CE20E940907C114D104C9F560
:103FC000CDB7DEB7E9E00C94972E81EE0E9476061D
:103FD000C601009789F2EFE9FFE03197F1F700C0E1
:103FE00000000197F6CFEFE9FFE03197F1F700C04D
:103FF00000000197C8CFEFE9FFE03197F1F700C06B
:1040000000000197C7CF86EE0E94BE06C60100974A
:1040100031F2EFE9FFE03197F1F700C000000197BE
:10402000F6CFEFE9FFE03197F1F700C0000001970C
:10403000BDCF8FE99FE00197F1F700C0000091E04C
:10404000C91AD108BACFEF92FF921F93CF93DF9393
:10405000EC01162F8881882309F45AC0813009F0B9
:1040600053C08981813071F47E0182E0E80EF11C39
:104070008A810E940907E701812F90E00097E1F50E
:104080002196E8CF823041F47E01E2E0EE0EF11C91
:104090008A810E947606EFCF833041F47E01F2E000
:1040A000EF0EF11C8A810E94BE06E5CF843011F02C
:1040B0002196E2CF2A81229680E090E06AE0AE016C
:1040C0004F5F5F4F2053330B2A30310550F000977C
:1040D00099F2EFE9FFE03197F1F700C00000019796
:1040E000F6CF689FF001699FF00D1124C9018E0F72
:1040F0009F1F2981EA01E3CFEFE9FFE03197F1F754
:1041000000C000000197BACF612F0E947F1FB8CF77
:10411000DF91CF911F91FF90EF900895FF920F9341
:104120001F93CF93DF938C01F62EF801849188239F
:1041300009F450C0813009F048C0E8012196FE0121
:104140008491813049F42196FE0184910E940907EF
:104150008E010F5F1F4FE9CF823039F4E8012296BC
:10416000FE0184910E947606F3CF833039F4E80192
:104170002296FE0184910E94BE06EACF843041F768
:10418000E8012296FE01849120E030E04AE0FE0141
:1041900031968053990B8A30910560F021153105D5
:1041A000B9F28FE99FE00197F1F700C000002150BC
:1041B0003109F4CF429FB001439F700D11249C013F
:1041C000260F371F8491EF01E2CF6F2D0E947F1FD2
:1041D000E801BECFCDB7DEB7E5E00C949B2E0F9380
:1041E0001F93CF93DF93C42FD22FFC0185818823A7
:1041F000C9F04093DB020E9473269093DA02809309
:10420000D90280E28C0F883040F4C77081E001C091
:10421000880FCA95EAF70E941207DF91CF911F918C
:104220000F9108951091DB0214133CC08091D902C4
:104230009091DA020E949C26883C910598F5C0E294
:10424000CD0F1D1741F180E2810F883040F41770C7
:1042500081E001C0880F1A95EAF70E941907C8305B
:1042600020F0802F0E940907D8CF91E08D2F877012
:1042700001C0990F8A95EAF7892F0E941207802FB3
:104280000E940907D77081E001C0880FDA95EAF72C
:104290000E941907C2CF802F0E940907C83008F07A
:1042A000BCCFF0CF80E28C0F883008F0B6CFC7705B
:1042B00081E001C0880FCA95EAF7EACF0F93FC01AD
:1042C000CB01E851FC47E730F10590F5E859F04D96
:1042D0000C94652E06E221EE41EE6AE17CE70E9435
:1042E000EF2080E00F91089507E225EE45EE6BE1A7
:1042F0007CE7F5CF06E221EE40EE68E17CE7EFCF08
:1043000007E225EE44EE69E17CE7E9CF06E221EE23
:1043100042EE6CE17CE7E3CF07E225EE46EE6DE18D
:104320007CE7DDCF08E221E045EE6EE17CE7D7CF08
:10433000FB01858181111092DB0281E0D3CFCF9305
:10434000DF939C01FB0127378CE7380739F02837CA
:104350003C47F1F081E0DF91CF910895858188237A
:1043600091F00E94D1210E94180A0E94D721D82FD3
:104370000E94D421C82F0E94D1214D2F6C2F0E9462
:104380006C0B80E0E8CF0E94D1210E94280AEDCF7B
:104390008581882319F00E94D421E5CF0E94D42181
:1043A000F4CF80914A010895809149010895809148
:1043B0004801089584E290E00E94CF2E863289F46D
:1043C00085E290E00E94CF2E823059F486E290E0A0
:1043D0000E94CF2E91E0863009F090E0892F817005
:1043E000089580E0FCCF882381F066E284E290E0CB
:1043F0000E94ED2E62E085E290E00E94ED2E66E0E4
:1044000086E290E00E94ED2E08956FEF84E290E046
:104410000E94ED2E6FEF85E290E00E94ED2E6FEF8F
:10442000EFCF0895A4E0B0E0E8E1F2E20C94822E30
:1044300087E290E00E94CF2E282F30E040E050E04D
:10444000CA01B9012496E2E00C949E2E0895CF9300
:10445000C62F0E9426226C2F87E290E00E94ED2E4C
:10446000CF91089580E00E94F32160E070E0CB01DD
:104470000E9427220E94A21A0E94541B81E00E94DF
:10448000F32108950E9411220E9412220E942622E6
:104490000E94DA21811102C00E94322208950E94F6
:1044A000391808959C01FB018581882351F0A901E9
:1044B00057574038510530F4822F0E94641B80E02A
:1044C000089581E008952FEFFC012083089580E096
:1044D0000895CF93DF93EC0188818330E1F038F4C5
:1044E000813071F0823081F0DF91CF910895843076
:1044F000D9F70E94BE1889830E94C1188A83F4CF1D
:104500000E94C4188983F0CF0E945B188823D1F3DE
:104510000E948418F7CF0E943419F4CF1F93CF93D1
:10452000DF93EC018881833069F140F4813071F0D0
:104530008230E1F0DF91CF911F9108958430D1F75F
:104540000E94C418482F89816A810CC019812FEFFD
:10455000129F112D11240E94C118C82F0E94BE184D
:10456000412F6C2F90E00E94BA18E4CF898181110D
:1045700003C00E944F18DECF0E94411889810E941B
:104580007C18D8CF89810E942E19D4CFFC019C01C0
:104590002E5F3F4F9081983041F0993051F0973025
:1045A00059F4C9010E948E220895C9010E9469220E
:1045B00008950E949F1508958FEF80830895FC0150
:1045C0002181233019F40E94C62208950E9463229B
:1045D0000895CF92DF92FF920F931F93CF93DF93B3
:1045E000CDB7DEB72E970FB6F894DEBF0FBECDBFA6
:1045F0008D839E83F62E8D819E810E94672281117C
:1046000015C0AD81BE81EC91E150E33140F5F0E0A1
:10461000E159F04D0C94652EED81FE8111828CE004
:1046200082836F2D8D819E810E9471272E960FB6F9
:10463000F894DEBF0FBECDBFDF91CF911F910F91D8
:10464000FF90DF90CF900895AD81BE8111968C913F
:10465000833099F148F4813081F08230E9F08FEFB6
:10466000AD81BE818C93DDCF8430C9F7ED81FE81B1
:104670001282138214821582D4CF0E947F260E9458
:104680006B2E6F83788789879A87ED81FE8162839D
:10469000738384839583C5CF0E9412220E946B2E60
:1046A0006B877C878D879E87AD81BE8112966D93C7
:1046B0007D938D939C931597B4CFED81FE810281FC
:1046C00010E06F01B2E0CB0ED11C043011050CF0EC
:1046D000A8CF802F0E942B13D60111969C9311977F
:1046E00012968C930F5F1F4FEDCFED81FE8181817C
:1046F000823049F0853009F0B2CFED81FE818281B0
:104700000E944F228ECFAD81BE8112968D919D91D8
:104710000D90BC91A02D89839A83AB83BC83BC018F
:10472000CD010E946B2E0E9427227BCFAD81BE81DE
:1047300013964C91139712966C91129711968C9137
:104740000E94641A982789279827ED81FE81958316
:10475000848367CFAD81BE8114962D913C911597CE
:1047600032272327322713964C91139712966C9178
:10477000129711968C910E94861A53CF0E94A21A0A
:1047800050CF6F2D8D819E810E94DF224ACF0E94E3
:104790000F1BED81FE81818344CF0E94111B98275E
:1047A00089279827AD81BE8112969C938E9311978D
:1047B00038CFED81FE81638170E081819281AF010C
:1047C0004C5F5F4F9827892798270E94141B29CF99
:1047D000AD81BE8113966C91139770E011968D9107
:1047E0009C911297AD014C5F5F4F982789279827BE
:1047F0000E94341B16CF0E94541B13CF0E94521AE2
:10480000C8CFAD81BE8113966C91139770E011965D
:104810008D919C911297AD014C5F5F4F982789272E
:1048200098270E94C21AFDCEED81FE81638170E05F
:1048300081819281AF014C5F5F4F9827892798272C
:104840000E94E31AEECE9093E1028093E002089575
:10485000E091E002F091E102309729F00190F081BF
:10486000E02D0995089580E008950E942824089578
:10487000E091E002F091E102309721F00280F381B3
:10488000E02D09950895DC01E091E002F091E1024C
:10489000309739F086E08C930480F581E02DCD01CE
:1048A00009950895DC01E091E002F091E102309772
:1048B00039F082E08C930680F781E02DCD010995D7
:1048C0000895A3E0B0E0E7E6F4E20C94822E9C01A8
:1048D0008091DE029091DF0282179307A1F030935E
:1048E000DF022093DE02E091E002F091E1023097D6
:1048F00051F083E089833B832A830084F185E02D96
:10490000CE01019609952396E2E00C949E2EA3E039
:10491000B0E0EDE8F4E20C94822E9C018091DC0280
:104920009091DD0282179307A1F03093DD0220936E
:10493000DC02E091E002F091E102309751F084E076
:1049400089833B832A830084F185E02DCE01019683
:1049500009952396E2E00C949E2E20913801309127
:1049600039012E5F3F4F809155018823A9F0809136
:10497000EE0287FF11C020913601309137012E5F82
:104980003F4F9DE180E0F90140812F5F3F4F411192
:104990008F5F9150C0F7089595E0F4CF882321F1FF
:1049A00090915501992311F19091EE0297FF1EC04D
:1049B000982F969596959695803FB0F4E0913601A4
:1049C000F0913701E90FF11D228130E0877041E05D
:1049D00050E0BA0102C0660F771F8A95E2F72623DE
:1049E000372381E0232B91F480E008952091380152
:1049F00030913901F9013296285F3F4F9191981714
:104A000021F0E217F307D1F7EFCF81E008959C0181
:104A1000FC0132968FEF90E04191461751F08F3FA5
:104A200019F4411101C0892F9F5F9630A9F78F3F7C
:104A300009F40895280F311D87FD3A95F901628325
:104A400008959C01FC013296285F3F4F81918613A7
:104A500003C0DF0111971C92E217F307B9F708951D
:104A6000FC01862F869586958695603F60F4E80F59
:104A7000F11D677021E030E001C0220F6A95EAF76E
:104A80008281822B82830895FC01862F86958695EC
:104A90008695603F80F4E80FF11D677081E090E03B
:104AA0009C0102C0220F331F6A95E2F7B90160959D
:104AB0008281682362830895682F8091550188233D
:104AC00059F08091EE0287FF07C0809136019091E6
:104AD00037010E9430250895809138019091390165
:104AE0000E9407250895682F80915501882359F069
:104AF0008091EE0287FF07C08091360190913701C7
:104B00000E944425089580913801909139010E94B6
:104B10002125089580915501882379F08091EE0236
:104B200087FF0BC0E0913601F091370132968EE19C
:104B3000DF011D928A95E9F70895E0913801F0911F
:104B40003901329686E0F4CFDC01FB0111969C918D
:104B500011978181981322C012968C911297882305
:104B600019F0928189131AC013968C911397882398
:104B700019F09381891312C015968C91159788238B
:104B800019F0958189130AC014969C91992321F0FC
:104B900081E02481291303C080E001C081E081709D
:104BA000089508950E94D12508958F5F8093E202B1
:104BB0000E94D225089583E08093E2020E94D225CC
:104BC00008950E94D525089581E08093E2020E9415
:104BD000D22508950E94E4250895089508950E941D
:104BE000EE250895089508950E94ED250895CF9328
:104BF0000E94F2250E94F0130E94F325C0E08C2F42
:104C00000E942B13892B31F4CF5FC430C1F780E0B1
:104C1000CF91089581E0FCCF85B7806885BF85B7C7
:104C2000806885BF08951F921FB61F9211248F932D
:104C30009F93AF93BF938091E302811113C0809142
:104C4000120390911303A0911403B09115034196A0
:104C5000A11DB11D8093120390931303A09314031D
:104C6000B0931503BF91AF919F918F911F901FBE7D
:104C70001F90189580911A03843031F10E94E2054B
:104C80001092E30288E190E020E40FB6F894A89532
:104C9000809360000FBE2093600083B7817F8460A3
:104CA00083BF83B7816083BF7894889583B78E7FF5
:104CB00083BF0FB6F894A8958091600088618093B7
:104CC0006000109260000FBE08950E946F090E945C
:104CD000EC05089582E084BD93E095BD9AEF97BD01
:104CE00080936E0008952FB7F894809112039091ED
:104CF0001303A0911403B09115032FBF0895A4E0EE
:104D0000B0E0E5E8F6E20C94822E8FB7F89420919B
:104D1000120330911303409114035091150329831A
:104D20003A834B835C838FBF69817A818B819C81BD
:104D30002496E2E00C949E2E9C014FB7F89480914B
:104D4000120390911303A0911403B09115034FBF68
:104D5000821B930B0895A4E0B0E0E1EBF6E20C9423
:104D6000802E462F572FBC012FB7F8948091120345
:104D700090911303A0911403B09115032FBF8C01E0
:104D80009D01041B150B260B370BC901B801249696
:104D9000E4E00C949C2E78941F921FB61F9211246D
:104DA0008F939F93AF93BF938091120390911303BE
:104DB000A0911403B09115030196A11DB11D80931C
:104DC000120390931303A0931403B0931503BF91A0
:104DD000AF919F918F911F901FBE1F90189581E0FA
:104DE0008093E00080E28093D8001092C9008FE1A8
:104DF0009EE40197F1F700C0000087E090EBDC0132
:104E00008093230390932403A0932503B093260358
:104E100088E19CE00FB6F894A895809360000FBEDF
:104E200090936000FFCF88E19CE00FB6F894A895BE
:104E3000809360000FBE90936000FFCF8091EC02E2
:104E40000895282FCB01BA0130911A033430E1F4D0
:104E50002F702093E9002FEF3091E80035FD07C057
:104E600035ED3A95F1F7000021502111F5CF209151
:104E7000E80025FF09C040E050E00E946C298091C5
:104E8000E8008E778093E8000895BC0143E050E08D
:104E900084E00E9421270895BC0146E050E084E0B0
:104EA0000E9421270895BC0140E250E084E00E9466
:104EB00021270895CF93DF93D82FC92F48E050E0E2
:104EC000682F792F81E00E94212788E0ED2FFC2FA9
:104ED000A4EEB2E001900D928A95E1F7DF91CF91B7
:104EE0000895792F603231F440E250E0682F82E07B
:104EF0000E9421270895A0E2B0E0E1E8F7E20C94D7
:104F0000822E80911A03843081F483E08093E9003B
:104F10008091E80082FF09C08091E80085FD09C00A
:104F20008091E8008B778093E800A096E2E00C94F3
:104F30009E2E40E050E060E270E0CE0101960E94BB
:104F4000BB298091E8008B778093E80060E2CE0176
:104F500001960E94E922E9CF80911903811109C0CD
:104F60000E94432B0E94A02B8091E20084608093DA
:104F7000E20008951092190308950E94E42508950F
:104F80006091160381E0611101C080E00E94DB2581
:104F9000089590911A0381E0943009F080E06091C7
:104FA00016030E94E125089542E061EC81E00E9431
:104FB000BF2A42E261EC84E00E94BF2A42E261EC37
:104FC00082E00E94BF2A42E260EC83E00E94BF2A96
:104FD00090911A0381E0943009F080E0609116030B
:104FE0000E94D525089580911C03893089F148F4E9
:104FF000823009F4A1C0833009F45BC0813041F0F4
:1050000008958A3009F488C08B3009F46DC0089582
:1050100080911B03813A09F04BC08091E800877FA3
:105020008093E80080911F0390912003892B61F009
:1050300060E080E090E070E00E940A2A8091E80041
:105040008B778093E800089568E084EE92E0F3CFD8
:1050500080911B03813261F580911F0390912003A1
:105060008D7F892B29F58091E800877F8093E80068
:105070008091E80082FF18C09091F3008091F200C7
:10508000029731F48091F100813011F0863021F4E3
:105090008091F1008093EC028091E8008B778093FF
:1050A000E8000E94F32A04C080911A038111E0CF26
:1050B000089580911B03813AD9F780911F03909145
:1050C0002003892BA9F78091E800877F8093E8006F
:1050D0008091E80080FFFCCF809155018093F10022
:1050E0008091E8008E77DBCF80911B03813201F73E
:1050F00080911F0390912003892BD1F68091E800C5
:10510000877F8093E8000E94F32A80911D0380939B
:1051100055010E946F09089580911B03813241F669
:105120008091E800877F8093E8000E94F32A8091B5
:105130001E038093ED02089580911B03813A09F0CC
:10514000B7CF8091E800877F8093E8008091E800E6
:1051500080FFFCCF8091ED02C1CF84B7877F84BFF1
:105160000FB6F894A89580916000886180936000E4
:10517000109260000FBE80E890E00FB6F894809324
:105180006100909361000FBE0E94EA2508950E947D
:10519000432B0E94A02BE2EEF0E0808184608083AC
:1051A00078940E94232E08958BE491E00E9423249A
:1051B000089580911A03853031F480911A03853067
:1051C00019F00E94652608950E943A2680911803DE
:1051D000882399F30E94F725882379F30E945629A2
:1051E0000E946F09EACF08959A01409121035091DE
:1051F00022030E94FC280895AC01CB01D901252F80
:1052000033272330310521F168F42130310509F4C9
:1052100043C02230310509F444C080E090E020E032
:1052200030E024C02132310551F122323105A9F795
:105230008330910590F7FC01EE0FFF1FE851FE4F00
:10524000208131818B519E4FFC01808190E00EC006
:10525000CA019927413069F08230910569F0E5E48F
:10526000F6E0892BD1F6849190E09F012D933C9339
:105270000895E1E3F6E0F7CFE5E0F6E0F4CF833020
:10528000910558F6FC01EE0FFF1FE251FE4F208101
:10529000318189E090E0EACF82E190E024EA36E0D3
:1052A000E5CF8BE590E029E436E0E0CF80E189BDF1
:1052B00082E189BD09B400FEFDCF8091D8008F7DC9
:1052C0008093D8008091E00082608093E00080911C
:1052D000E00081FDFCCF0895AF92BF92CF92DF92A4
:1052E000FF920F931F93CF93DF936C01EB018A0121
:1052F0000E94122BF82E811123C00115110539F0DF
:10530000F80180819181C81BD90BC80ED91EA12C30
:10531000B12C2097A9F08091E80085FD22C08091F2
:10532000E8008E778093E80001151105A1F0F801DF
:10533000808191818A0D9B1D9183808385E0F82E69
:105340008F2DDF91CF911F910F91FF90DF90CF9024
:10535000BF90AF9008950E94122B8823E1F2F82E9F
:10536000EFCFF60181916F018093F1002197FFEF5C
:10537000AF1ABF0ACECFAF92BF92CF92DF92FF9209
:105380000F931F93CF93DF936C01EB018A010E946F
:10539000122BF82E811123C00115110539F0F801E7
:1053A00080819181C81BD90BC80ED91EA12CB12CAC
:1053B0002097A9F08091E80085FD22C08091E80047
:1053C0008B778093E80001151105A1F0F801808129
:1053D00091818A0D9B1D9183808385E0F82E8F2D0E
:1053E000DF91CF911F910F91FF90DF90CF90BF90F1
:1053F000AF9008950E94122B8823E1F2F82EEFCF90
:105400008091F100F60181936F012197FFEFAF1AB0
:10541000BF0ACECFFC019B01809121039091220312
:105420008617970718F0672B61F0C90140E00097D5
:1054300071F441110CC08091E80082FF35C080E01A
:1054400008958091E8008E778093E800EECF209158
:105450001A032223A9F12530A9F12091E80023FDA8
:105460002DC02091E80022FDE6CF2091E80020FF2A
:10547000DECF3091F3002091F200009719F0283030
:10548000310558F041E02830310509F040E0209125
:10549000E8002E772093E800CACF41914093F100B5
:1054A00001972F5F3F4FE9CF80911A03882341F086
:1054B000853041F08091E80083FFBDCF81E0089501
:1054C00082E0089583E00895FC019B01809121030F
:1054D000909122038617970718F0672B61F0C90196
:1054E00040E0009771F441110CC08091E80082FF08
:1054F00036C080E008958091E8008E778093E800C0
:10550000EECF20911A032223B1F12530B1F1209181
:10551000E80023FD2EC02091E80022FDE6CF209177
:10552000E80020FFDECF3091F3002091F2000097D9
:1055300019F02830310558F041E02830310509F0E4
:1055400040E02091E8002E772093E800CACF4491F4
:105550004093F100319601972F5F3F4FE8CF809144
:105560001A03882341F0853041F08091E80083FFE1
:10557000BCCF81E0089582E0089583E00895982FDC
:10558000973028F08F708093E90081E00895909320
:10559000E900242F762F50E0981731F07091EC003D
:1055A0002091ED005091F00021FD02C09F5FE8CFF7
:1055B0003091EB003E7F3093EB003091ED003D7F6A
:1055C0003093ED003091EB0031603093EB0070933D
:1055D000EC002093ED005093F0002091EE0027FDA9
:1055E000E5CF80E0089580911B0387FF13C0809171
:1055F000E80082FF06C08091E8008B778093E80086
:1056000004C080911A038111F2CF089580911A038A
:105610008823D9F38091E80080FFF8CF8091E800DB
:105620008E77ECCF2091E4003091E50095E6A9015A
:105630008091EC008170882331F08091E80080FF38
:1056400006C080E008952091E80022FD1BC08091F3
:105650001A03882391F0853091F08091EB0085FD4D
:1056600010C02091E4003091E5004217530701F388
:1056700091509111DCCF84E0089582E0089583E099
:10568000089581E008950E94B22B0E94BA2BE0EEAB
:10569000F0E0808181608083E8EDF0E080818F77A9
:1056A000808319BCA7EDB0E08C918E7F8C938081B4
:1056B0008F7E80831092190308950F931F93CF93C9
:1056C000DF930E94B22B0E94BA2BC8EDD0E08881F4
:1056D0008F77888388818068888388818F7D88839D
:1056E00019BC10921A03109216031092180310920C
:1056F000170300EE10E0F80180818B7F80838881A2
:105700008160888342E060E080E00E94BF2AE1EE91
:10571000F0E080818E7F8083E2EEF0E08081816026
:105720008083808188608083F80180818E7F808380
:10573000888180618883DF91CF911F910F910895B7
:10574000E8EDF0E080818F7E8083E7EDF0E08081FE
:105750008160808384E082BF81E0809319030E948E
:105760005D2B0895E8EDF0E080818E7F80831092BC
:10577000E20008951092DA001092E10008951F925D
:105780000F920FB60F9211242F933F934F935F9375
:105790006F937F938F939F93AF93BF93EF93FF93F9
:1057A0008091E10082FF0BC08091E20082FF07C080
:1057B0008091E1008B7F8093E1000E94222E8091F6
:1057C000DA0080FF19C08091D80080FF15C0809159
:1057D000DA008E7F8093DA008091D90080FF94C038
:1057E00080E189BD82E189BD09B400FEFDCF81E081
:1057F00080931A030E94AC278091E10080FF19C0BA
:105800008091E20080FF15C08091E2008E7F80933E
:10581000E2008091E20080618093E2008091D800F4
:1058200080628093D80019BC85E080931A030E949F
:10583000C0278091E10084FF29C08091E20084FFAD
:1058400025C080E189BD82E189BD09B400FEFDCF9C
:105850008091D8008F7D8093D8008091E1008F7E69
:105860008093E1008091E2008F7E8093E20080913E
:10587000E20081608093E20080911603882309F49E
:1058800049C084E080931A030E94C9278091E100F7
:1058900083FF29C08091E20083FF25C08091E10051
:1058A000877F8093E10082E080931A0310921603B1
:1058B0008091E1008E7F8093E1008091E2008E7FF5
:1058C0008093E2008091E20080618093E20042E0F8
:1058D00060E080E00E94BF2A8091F00088608093A1
:1058E000F0000E94BD27FF91EF91BF91AF919F9172
:1058F0008F917F916F915F914F913F912F910F9079
:105900000FBE0F901F90189519BC10921A030E9499
:10591000BA2772CF8091E30087FF02C083E0B2CF45
:1059200081E0B0CF1F920F920FB60F921124FF9219
:105930000F931F932F933F934F935F936F937F9397
:105940008F939F93AF93BF93CF93DF93EF93FF9387
:1059500009EE10E0F8018081C091EC00C795CC27DA
:10596000C7958F70FC2EF82A1082C0EFD0E0888196
:10597000877F888378940E94DB2CF80110828881CD
:1059800088608883CF2DCF70C083FF91EF91DF9126
:10599000CF91BF91AF919F918F917F916F915F91C7
:1059A0004F913F912F911F910F91FF900F900FBE3C
:1059B0000F901F901895AAE2B0E0E1EEFCE20C9483
:1059C000812E8BE193E0FC0101962091F100208370
:1059D00023E083329207B9F70E94F3278091E80011
:1059E00083FF38C080911B0390911C039A3090F57F
:1059F000E92FF0E0EE57F04D0C94652E803889F0D9
:105A0000823841F580911F038F70873018F580939D
:105A1000E9008091EB0085FB882780F91092E9006E
:105A200006C08091170390911803911182609091A4
:105A3000E800977F9093E8008093F1001092F100C6
:105A40008091E8008E7723C0811116C080911D03DC
:105A5000813011F18091E80083FF0AC08091E80055
:105A6000877F8093E8008091EB0080628093EB0059
:105A7000AA96E3E00C949D2E823061F780911D037D
:105A8000882389F01092E9008091E800877F809355
:105A9000E8000E94F32ADECF81E0933009F080E035
:105AA00080931803EFCF80911F038F702FEF280F83
:105AB000263080F68093E9002091EB0020FFE2CFB2
:105AC000933031F48091EB0080628093EB00DACF69
:105AD0009091EB0090619093EB0021E030E0A90100
