:100000000C947C030C94B4030C94B4030C94B403CC
:100010000C94B4030C94B4030C94B4030C94B40384
:100020000C94B4030C94B4030C94D72B0C94932B22
:100030000C94E32C0C94B4030C94B4030C94B4030C
:100040000C94B4030C94B4030C94B4030C94B40354
:100050000C94B4030C94BF2C0C94B4030C94B40310
:100060000C94B4030C94B4030C94B4030C94B40334
:100070000C94B4030C94B4030C94B4030C94B40324
:100080000C94B4030C94B4030C94B4030C94B40314
:100090000C94B4030C94B4030C94B4030C94B40304
:1000A0000C94B4030C94B4030C94B4030501090636
:1000B000A1018506050719E029E715002501950826
:1000C000750181020507190029EF1500250195F03A
:1000D000750181020508190129059505750191022F
:1000E000950175039101C00660FF0961A1010962D4
:1000F000150026FF0095207508810209631500266A
:10010000FF00952075089102C005010906A10105AF
:100110000719E029E7150025019508750181029569
:1001200001750881010507190029FF150026FF0048
:100130009506750881000508190129051500250196
:10014000950575019102950175039101C0FD377AFE
:10015000585A000004E6D6B44602002101160000F9
:1001600000742FE5A3E001F400DD5D003D8889C641
:100170005436C3174FE4E9058BD7B71AF9E1174C8A
:1001800017D7BACCF389DBE6414CA3C32BDD67A5B7
:1001900077750CC6E39792D2FECE05A0074061B5F5
:1001A0006C390A95F268C898505FC21D964C02746B
:1001B0008E3CFC7733E48B03189514F8EB15CB4495
:1001C0009C4F3419F66964713382B7139634AB814E
:1001D000877EF080CBBCF3E74176F80DDF9A3B4198
:1001E000D877E9833EB94D894C47AEA11F3225E946
:1001F0005C506D33C0F691E09330FF19F1B747C101
:10020000129C08817D3147A1786086BE624B9DCCEF
:10021000B6FA1372DE1639ED53BA9E4E394BEDC461
:10022000D141666F2BE33A82EF27380D7EC22264FC
:10023000CAB80FDA46AF2D80931FDAF2389A08F960
:1002400001E77CF0CFBBCF6332000000009FA3B674
:1002500071E1894D5D0001F901F503000070ED5673
:100260007FB1C467FB020000000004595A0001017D
:100270000101010101010102020202020202020265
:100280000303030303030303040404040404040535
:1002900005050505060606060607070707070808F9
:1002A0000808090909090A0A0A0B0B0B0C0C0C0DAA
:1002B0000D0D0E0E0E0F0F0F101011111112121343
:1002C000131414151516161717181819191A1A1BBE
:1002D0001B1C1D1D1E1E1F2020212222232424251D
:1002E0002626272829292A2B2C2D2D2E2F30313256
:1002F00032333435363738393A3B3C3D3E3F404166
:1003000042434445464748494A4C4D4E4F5051534D
:1003100054555658595A5B5D5E5F61626465666804
:10032000696B6C6D6F7072737577787A7B7D7E8088
:1003300082838587888A8C8E8F91939596989A9CD4
:100340009EA0A2A3A5A7A9ABADAFB1B3B5B7BABCE8
:10035000BEC0C2C4C6C9CBCDCFD1D4D6D8DBDDDFB9
:10036000E2E4E7E9EBEEF0F3F5F8FAFDFF01000156
:1003700000280435101B1000000200020024043580
:10038000101B10000003000100290435101B100091
:1003900000040002000E0435101B101207050001B6
:1003A000002A0435101B100000060002001004355E
:1003B000101B10000007000200260435101B10005F
:1003C00000080001002B0435101B10000012000271
:1003D000002C0435101B100000130002002E043501
:1003E000101B10000014000100300435101B100019
:1003F0000015000000000096060617000014001A01
:1004000000080015001700AA00A9001C0018000C25
:10041000001200130004001600070009000A00AED5
:1004200000AB000B000D000E000F0028001D001B8C
:100430000006001900050019011D01110010003609
:100440000037002A004C2829242B212C41E10006EA
:10045000011B012C0022522B4329004C00240025B3
:1004600000260063005700AA0FA90F550021023390
:10047000023102350021002200230027005600AE81
:100480000FAB0F540020022F02300233001E001F5A
:100490000020002A002E002D082E083100240236EC
:1004A0000237023400E700E200E40000525822293B
:1004B000082908231C2C08251C261C271C35022271
:1004C000022D0223022E02AA07A90725024A005282
:1004D000004D004B001F0234021E0238022D00AEF8
:1004E00007AB073800500051004F004E002F00307E
:1004F00000260227022E002D012E03310050125239
:10050000124F120000E700E200E4003900E5002786
:1005100001270138070052511200000000000000BE
:10052000000000000000000000000000003A003B56
:10053000003C003D00000000000000000000000042
:1005400000000000003E003F0040004100000000AD
:100550000000000000000000000000000042004316
:100560000044004500E700E200E4000000E5000070
:100570000000000000000000000000000009025B15
:1005800000030100A0FA09040000010301010009B1
:10059000211101000122440007058103080001091F
:1005A00004010002030000000921110100012222C0
:1005B000000705820320000107050303200001094D
:1005C0000402000103000000092111010001223B87
:1005D000000705840320000112010002000000084A
:1005E00062524B4E0101010203011C0376006900B7
:1005F00061006C003A00660036003400630032008F
:1006000062003300630000002A0358002E005400EB
:10061000690070007300200056003400340055005B
:1006200020004B006500790062006F0061007200DD
:10063000640000000E0358002E0054006900700092
:100640007300000004030904000000000000000023
:10065000000000000000000000000000000000009A
:100660000000000000000000000000007E0F00D429
:10067000FFFFFFC70000007800000000000000003E
:100680002A2B2800000000000000000000000000ED
:1006900000000029000000002C1E342021222434F8
:1006A0002627252E362D3738271E1F2021222324CA
:1006B00025263333362E37381F0405060708090A66
:1006C0000B0C0D0E0F101112131415161718191A02
:1006D0001B1C1D2F3130232D350405060708090A80
:1006E0000B0C0D0E0F101112131415161718191AE2
:1006F0001B1C1D2F3130354C11241FBECFEFDAE00B
:10070000DEBFCDBF04B603FE18C08091AB0590914B
:10071000AC05A091AD05B091AE058730904BA740D8
:10072000B04B59F41092AB051092AC051092AD0588
:100730001092AE05E0E0F8E3099511E0A0E0B1E029
:10074000EAECFAE602C005900D92A838B107D9F795
:1007500025E0A8E8B1E001C01D92AB3AB207E1F78D
:100760000E940A2D0C94F0340C940000982FE09114
:10077000A9054091600559E0E41302C080E00895A6
:100780002E2F30E05E9FF0011124EF59FA4F818146
:10079000681306C08081981303C085818111EFCF53
:1007A000F9013196E770E8CFE8EDF0E080818E7FC7
:1007B00080831092E2001092DA001092E100A0EE25
:1007C000B0E08C9181608C9380818F77808319BC9D
:1007D000A7EDB0E08C918E7F8C9380818F7E80839B
:1007E00010923F0508952091E4003091E50095E6D0
:1007F000A9012091EC00822F817020FF06C080911A
:10080000E80080FF06C080E008952091E80022FD06
:100810001AC080914A05882389F0853089F080913B
:10082000EB0085FD0FC02091E4003091E5004217F8
:100830005307F9F29150E1F684E0089582E00895BB
:1008400083E0089581E0089580914C0587FF13C0EF
:100850008091E80082FF06C08091E8008B7780934A
:10086000E80004C080914A058111F2CF089580917B
:100870004A058823D9F38091E80080FFF8CF809162
:10088000E8008E77ECCF982F9093E900242F762FF5
:1008900050E0891731F07091EC002091ED005091FB
:1008A000F00021FD07C09F5F973071F78093E9004A
:1008B00081E008953091EB003E7F3093EB00309162
:1008C000ED003D7F3093ED003091EB0031603093CF
:1008D000EB007093EC002093ED005093F00020911A
:1008E000EE0027FDE0CF80E00895B0E0A0E0EBE768
:1008F000F4E00C943334C8EDD0E088818F7E888397
:10090000E7EDF0E080818160808384E082BF81E058
:1009100080933F0588818E7F888302EE10E0F80186
:1009200010821092DA0081EEC82ED12CF6011082CE
:1009300088818F77888388818068888388818F7D8C
:10094000888319BC10924A0510924B0510924905F4
:100950001092480590EEE92EF12CF70180818B7FF3
:10096000808388818160888342E060E080E00E942B
:100970004304F60180818E7F8083F801808181604D
:100980008083808188608083F70180818E7F80836F
:10099000888180618883CDB7DEB7E8E00C944F345E
:1009A000FC01CB01209152053091530526173707E2
:1009B00090F0009729F42091E8002E772093E8002A
:1009C00040E0009751F4411108C08091E80082FF97
:1009D00031C080E00895C901F3CF20914A05222358
:1009E000A9F12530A9F12091E80023FD2DC0209127
:1009F000E80022FDEACF2091E80020FFE2CF30910D
:100A0000F3002091F200009719F02830310558F0DA
:100A100041E02830310509F040E02091E8002E77D0
:100A20002093E800CECF41914093F10001972F5FD2
:100A30003F4FE9CF80914A05882341F0853041F04E
:100A40008091E80083FFC1CF81E0089582E008959E
:100A500083E0089508950895A4E0B0E0E2E3F5E0AE
:100A60000C9439348FB7F89420913B0530913C05B4
:100A700040913D0550913E0529833A834B835C8329
:100A80008FBF69817A818B819C812496E2E00C94EE
:100A900055342FB7F89480913B0590913C05A09177
:100AA0003D05B0913E052FBF089580911501089531
:100AB000909116019130E1F49091380597FF18C09C
:100AC000E82FE695E695E695803FF0F4F0E0EE56E7
:100AD000FE4F877021E030E0A90102C0440F551F8E
:100AE0008A95E2F7CA0180959281892382830895CD
:100AF000ECE8F1E09191891303C0DF0111971C929A
:100B000051E0E239F507B1F708959091160191305F
:100B1000C1F49091380597FF14C0E82FE695E6954B
:100B2000E695803FF8F4F0E0EE56FE4F877021E046
:100B300030E001C0220F8A95EAF78281822B8283FE
:100B40000895ACE8B1E0EFEF90E02D91821751F0FD
:100B5000EF3F19F4211101C0E92F9F5F9630A9F7EB
:100B6000EF3F09F408950E2E000CFF0BE657FE4FE1
:100B7000E6CFE0913605F0913705309729F00190E6
:100B8000F081E02D0995089580E00895FA013097ED
:100B900009F009950895CF92DF92EF92FF92CF93DB
:100BA000DF9300D000D000D0CDB7DEB78E839D8319
:100BB000C0902605D0902705E0902805F0902905E3
:100BC0000E942C05DC01CB018C199D09AE09BF09DF
:100BD000843F9140A105B10538F5C0922205D0921D
:100BE0002305E0922405F092250584EF91E0A0E032
:100BF000B0E080931E0590931F05A0932005B0934D
:100C000021058E8180932D059D8190932E0526963A
:100C10000FB6F894DEBF0FBECDBFDF91CF91FF902E
:100C2000EF90DF90CF9008950E942C0560932205ED
:100C300070932305809324059093250582E390E02B
:100C4000A0E0B0E0D6CFFC018481862351F48281FC
:100C50008823B9F06823908593FF05C081E0611176
:100C60000FC080E00895282F2F7082958F70282B59
:100C7000962F9F7062956F70692B81E02613F1CFDC
:100C8000089581E0FDCFAC0130911A0560911B05FC
:100C9000232F621301C00895822F90E0FC01EE0F14
:100CA000FF1FEE5EFA4F0190F081E02DE417F5078B
:100CB00091F467E0649FF001659FF00D1124E75CFB
:100CC000FB4F41E044832313E6CF019683709927BD
:100CD00080931A0508950196282F2370DACF109279
:100CE000370410923604E9E3F4E08581811102C0F3
:100CF00014821682379684E0E93AF807B1F708952E
:100D0000FC01EE0FFF1FE80FF91FE951FC4F618353
:100D1000408322830895E7EEF3E08183608342837A
:100D20008483638345830895529A0895B0E0A0E0D8
:100D3000ECE9F6E00C942F344B018FEF9FEF443039
:100D4000510508F46AC04091380541FB882780F9B5
:100D500090E0880F991F42FB002700F910E0000F78
:100D6000111F000F111F802B912B40FBAA24A0F80C
:100D7000B12CA82AB92A43FB882780F9C82FE0E0C4
:100D8000DE2F53E0CC0FDD1F5A95E1F7CA29DB298E
:100D900044FBAA27A0F9B0E064E0AA0FBB1F6A9544
:100DA000E1F7AC2BBD2B45FBEE27E0F9F0E075E059
:100DB000EE0FFF1F7A95E1F7EA2BFB2B46FB22276C
:100DC00020F930E0A6E0220F331FAA95E1F72E2B81
:100DD0003F2B47FB442740F950E05695542F4427BA
:100DE00057954795242B352B80913905982F917075
:100DF000D92EC22ED32A86958170F82EFF0CE12CB5
:100E0000CE28DF280D2C000CEE08FF08F401C0826C
:100E1000D182E282F38290E080E0CDB7DEB7ECE0F1
:100E20000C944B3480910E0490910F0490930F0119
:100E300080930E010895EEE4F2E090E080E064ED2E
:100E40007AE24BEF5AE228E43AE2778366835187ED
:100E500040873387228797878687019670968830E8
:100E6000910599F7089581152CE7920741F4209197
:100E7000120130911301232B11F490E080E00895CA
:100E8000E8E5F5E0248130E1231B08F420E0248329
:100E9000809139028160809339020895E8E5F5E098
:100EA000248130E1230F08F42FEF2483809139024D
:100EB0008160809339020895922F20915805237004
:100EC00059F08093590560935A0540935B05209132
:100ED0003902292B209339020895E8E5F5E0438192
:100EE00020E1421B08F440E0818121E0628190E032
:100EF0000E945C070895E8E5F5E0438120E1420F98
:100F000008F44FEF818121E0628190E00E945C074C
:100F10000895E8E5F5E0628120E1621B08F460E0F5
:100F2000818121E0438190E00E945C070895E8E51B
:100F3000F5E0628120E1620F08F46FEF818121E02A
:100F4000438190E00E945C070895E8E5F5E0818127
:100F500021E0438162818850990B0E945C070895CB
:100F6000E8E5F5E0818190E021E043816281089627
:100F70000E945C070895262F90915805937061F0A8
:100F800081110BC094609093580510920D016091EF
:100F90003902622B609339020895843010F09C600E
:100FA000F2CF880F880F982BEECF90915805969529
:100FB00096958FEF890F913009F483E061E00E94EC
:100FC000BB07089580915805869586958F5F84307C
:100FD00008F081E061E00E94BB0708958091580508
:100FE000837011F010920D01809158058C7F8093D1
:100FF0005805089580915805837011F410920D01E1
:10100000809158058C7F8160809358050895E8E5AC
:10101000F5E0808191E08927808310920D01809115
:1010200039028160809339020895622F08950E94E9
:101030008B0608950E9480060895482F2695E22F7A
:1010400026FDE0953E2F3F7026FD3F5FE695E69535
:10105000E695E670F0E0E55CFE4F9181939F902D60
:10106000312D112492959F703295307F932B808182
:10107000980F27FD919597FD9195990F292F249F02
:10108000212D1124822F0895B0E0A0E0EAE4F8E0D9
:101090000C943134262FD72EE82FF0E0E359FD4F82
:1010A00071110AC0E4918E2F9E2F6E2F792FCDB72C
:1010B000DEB7EAE00C944D34072F10E0E4914E2F98
:1010C00056E0659F70011124CFEFD0E0C701BE014B
:1010D0000E940834822F90E0880F991F55E5569F93
:1010E0009001579F300D1124821B930B582F550FE1
:1010F000580FCE01801B910BE89F9001E99F300DA6
:101100001124932FD59ED0011124AB2FBB276E0144
:10111000CA1ADB0AEC9DD001ED9DB00D11248B2F76
:101120005E01A51AB108A09E6001A19ED00CB09EE0
:10113000D00C1124CD2CDD24CC19DD09EC9F8001CD
:10114000ED9F100D112463307105D1F05CEFE516B1
:1011500053E0F50670F461307105B1F0623071054D
:10116000B9F04FEFE416F10408F09FCF832F912FD1
:101170009CCF6430710579F066307105B9F395CF75
:10118000E32F9B2F842F91CFEB2F832F942F8DCF85
:10119000812FE32FFBCF8E2FE12F87CFB0E0A0E090
:1011A000E4EDF8E00C9434347C01C091180101E0C6
:1011B0000C0FD02E033010F082E0D82E30915C0559
:1011C0003695369521E0320F08F43FEF40915405F3
:1011D0005091550590E080E0439F812D539F800DF5
:1011E000911D1124182FD0E0CD1548F081E0023078
:1011F00008F080E0CDB7DEB7E7E00C945034FE0194
:10120000EE5AFE4F84A990911901892389F06091CB
:10121000590570915A0580915B05212F4C2FF701DC
:1012200009950E944408472F282FCE010E941A08D2
:101230002196DACFB0E0A0E0E0E2F9E00C9433349C
:10124000C82F80910C018C133CC09091580593706D
:1012500020910B0130E081E09217130609F480E041
:10126000817080931A0180915D0590911901981702
:1012700039F08093190140E060E080E00E94170897
:10128000C23009F45EC0F8F4CC2321F1C13061F121
:1012900080E0909118019F5F9093180181110CC01C
:1012A00082E080930D0180911A01811105C0C11166
:1012B00003C083E080930D01CDB7DEB7E8E00C9466
:1012C0004F3481E0CDCF85E198E0C33009F70E942B
:1012D000CE08DFCF80911A018823D9F240E060E088
:1012E00080E00E941708D4CF00911801D1E0D00F00
:1012F000CD2ED33010F082E0C82E60915905709148
:101300005A0580915B050E944408F62EE72ED82EE0
:1013100010E00C1528F081E0D23008F4BACFB8CF35
:10132000F801EE5AFE4F84A990911901892331F0FA
:101330002D2D4E2D6F2DC8010E941A080F5F1F4FD3
:10134000E8CF8DE198E0C3CF80E00895F894E82FCE
:10135000E295EF70F0E041A18F7021E030E0B9013B
:1013600002C0660F771F8A95E2F7CB01962F909502
:10137000942391A392A1892B82A3789408959091AC
:10138000380592FF10C041E0282F2471243009F065
:1013900040E031E0282F2871283009F030E0431771
:1013A00011F02CE0822793FF10C041E0282F247118
:1013B000243109F040E031E0282F2871283109F06C
:1013C00030E0431711F02CE082273091390530FFCF
:1013D00010C051E0282F2171213009F050E041E088
:1013E000282F2871283009F040E0541711F029E027
:1013F000822731FF10C041E0282F2171213109F0EF
:1014000040E031E0282F2871283109F030E04317FF
:1014100011F029E0822794FD877E0895803E910592
:10142000C1F1C8F48133910509F47DC048F48932D3
:10143000910509F46DC08A32910509F47BC00895C5
:1014400089339105D1F082389105B9F08533910542
:1014500009F459C00895843E9105C1F138F4823EE3
:10146000910521F1833E910531F10895863E910564
:10147000C1F1873E9105E1F108952091380523706F
:1014800009F065C02091390523FF14C089E290E07E
:1014900008952091380520FD43C03091390530FF73
:1014A00009C024FF4EC090E080E0089520913805E7
:1014B00022FDF7CF08952091380522FD45C03091D7
:1014C000390530FD44C024FFF5CFEDCF209139051B
:1014D00021FFF0CF8091380584FDE5CF87EE90E0C5
:1014E00008952091380523FFE5CF24FDDCCFF6CF0A
:1014F0002091380523FD2EC03091390531FFE3CF0F
:1015000084EE90E008952091380525FFD3CFBECF1B
:101510002091380525FD21C02091390523FFCACF30
:1015200089E390E0C7CF2091380526FFC3CF8AE238
:1015300090E008952091380526FFBCCF81E390E02C
:10154000089583EE90E0089582EE90E0089580EE95
:1015500090E0089586EE90E0089585E390E0089588
:101560001F93CF93DF930E940E0AEC0181159245E1
:1015700008F04FC0C11580E5D80708F0C8C0C83EC4
:10158000D105F0F4C03ED10568F4C53AD10578F430
:10159000C430D10538F491E080E0219709F090E063
:1015A000C92FD82FCE01DF91CF911F910895CE0181
:1015B0008D5C9109D0654397A8F3D0E0C0E0F2CFED
:1015C000C11590E4D907D8F4C11520E2D20708F07C
:1015D000B8C0CE019A9581159F4178F78D2F0E9452
:1015E000BF09182FCE0199270E940E0AC12FD0E003
:1015F000DC2FCC27CC27DF71C82BD92BD3CFCE0142
:1016000099270E940E0ACC27DF70C82BD92BD06AED
:10161000C9CFC03882E5D807B8F5C03692E5D907FA
:1016200008F056C0C03422E5D207C8F4C03282E5C3
:10163000D80708F046C02C2F2695269590E2299FC2
:10164000900111248C2F8370C1E0D0E002C0CC0F38
:10165000DD1F8A95E2F7C22BD32BDD68A3CF2C2F99
:1016600026952695277080E2289F900111248C2FC3
:101670008370C1E0D0E002C0CC0FDD1F8A95E2F795
:10168000C22BD32BDC688ECFC03C92E5D90760F427
:101690008C2F8F71C03AD24580F5C82FD0E0DC2F57
:1016A000CC27C46FD06A7ECFCE01805C92458097F4
:1016B00008F083CFDC2FCC27CC27DF71C06FD06A36
:1016C00071CFCF71D0E0DC2FCC27C16FD06A6ACF49
:1016D0002C2F26952695277080E2289F90011124B3
:1016E0008C2F8370C1E0D0E002C0CC0FDD1F8A9543
:1016F000E2F7C22BD32BDA6855CF0E94BF09C82F5F
:10170000D0E0DC2FCC27CC27DF71D0624BCF8C2FE1
:101710008F710E94BF0955E0D695C7955A95E1F79C
:10172000CF70D0E0DC2FCC27282F30E084FF05C01D
:1017300044E0220F331F4A95E1F7C22BD32BD06927
:1017400031CF8D2F8F710E94BF09182FCE0199279D
:101750000E940E0AC12FD0E0DC2FCC27CC27DF71EE
:10176000C82BD92BD2CF80910302882331F010925D
:10177000030210920202109201020895CF93C82F23
:101780008091390582FF0CC0809103028C1741F0D3
:101790000E9449059093020280930102C0930302C4
:1017A000CF91089590910302292F282361F080950D
:1017B000892380930302882339F00E94490580938E
:1017C000010290930202089580E090E0F8CF982FF4
:1017D00090958091AA0589238093AA050895982F52
:1017E00090958091ED0389238093ED030895909166
:1017F000ED03982B9093ED0308951092D801109269
:10180000D7011092D601089580911004909111048F
:10181000892B91F00E94490520910102309102022A
:10182000AC01421B530B9A0181E04091100450918E
:1018300011042417350708F480E081700895CF93D0
:101840008091ED03C091AA05C82B809103028823E3
:10185000F9F08091100490911104892B29F00E94D5
:10186000040C81110E94B30B80910302C82B80915C
:1018700016018130B1F48091380587FF12C08EE1E6
:1018800024E931E090E0815080F491110E94B30B83
:1018900080912A0580958C2390912B05892BCF91DF
:1018A000089586E02CE831E0EDCFF90141919F01E8
:1018B000442349F39F5FE7CF9091D501292F282337
:1018C00021F0809589238093D50108958091A90501
:1018D00090916005981301C008958F5F8770FACFCB
:1018E000292F943078F58C3068F590E03CE0239F08
:1018F000800D911D1124682F677023E096958795C0
:101900002A95E1F7FC01EE0FFF1FE80FF91FE654DF
:10191000FE4F50E040E080E0219130E0062E02C012
:10192000369527950A94E2F721703327042E01C0DB
:10193000220F0A94EAF7822B4F5F5F4F4330510525
:1019400059F7089580E00895292F943090F58C3050
:1019500080F590E03CE0239F800D911D1124282FFD
:10196000277041E001C0440F2A95EAF723E09695DD
:1019700087952A95E1F7FC01EE0FFF1FE80FF91F8D
:10198000E654FE4F90E080E070E05191DF01119746
:101990009B01082E02C0369527950A94E2F7217024
:1019A00021952527242325272C9301968330910503
:1019B00061F70895282F90911202911105C081E0DE
:1019C000222351F080E00895892F90E002C0959580
:1019D00087952A95E2F78170089580931202089501
:1019E0009091120221E030E0F90101C0EE0F8A95DA
:1019F000EAF7D90102C0AA0FBB1F6A95E2F7EA2BEA
:101A000001C0220F4A95EAF7892F8E23E81305C0FB
:101A1000292B822F0E94ED0C089520952923F9CFC0
:101A200021E030E001C0220F8A95EAF720958091ED
:101A3000120282230E94ED0C08959091D8018095A6
:101A400089238093D801282F277069F4891759F0CA
:101A50009091390592FF07C08695869586950E94DC
:101A6000100D0E94FD0B089521E030E001C0220F0F
:101A70008A95EAF780911202822B0E94ED0C08955C
:101A80009091390592FF10C098E0899F9001112430
:101A9000622B6093D8010E94340D0E9449059093F7
:101AA000D7018093D60108950E94340D0895809344
:101AB00011020895282F92959F70963091F060F44E
:101AC000925F9F70923030F481E0203F81F030F4DB
:101AD000283E30F080E008959A5FF3CF243FD1F79D
:101AE000089581E0283EE0F3213FA1F7F9CF089562
:101AF0009C019A9581159F4150F5D901AA27B17093
:101B0000F901EE27F270B90166277470A901442724
:101B1000587034FF0EC080E1AB2B09F480E0EF2B4E
:101B200009F08062672B09F08064452B89F080689A
:101B3000089581E0AB2B09F480E0EF2B09F082607F
:101B4000672B09F08460452B19F08860089580E0C8
:101B500008950F931F93CF93DF938B01EA01909128
:101B60004A05943061F58093E9008FEF9091E80089
:101B7000815095FD06C095ED9A95F1F70000811111
:101B8000F5CF8091E80085FF1AC00E94F303811110
:101B900011C08091E80085FD06C08091E8008E7735
:101BA0008093E800F2CFF80181918F018093F100DA
:101BB000219779F78091E8008E778093E800DF9194
:101BC000CF911F910F910895BC0140E250E084E055
:101BD0000E94A90D0895CF93DF93D82FC92F48E015
:101BE00050E0682F792F81E00E94A90D88E0ED2F49
:101BF000FC2FA0E4B5E001900D928A95E1F7DF910A
:101C0000CF91089581E08093E00080E28093D80036
:101C10001092C9008FE19EE40197F1F700C0000027
:101C200087E090EBDC018093AB059093AC05A0932B
:101C3000AD05B093AE0588E19CE00FB6F894A89589
:101C4000809360000FBE90936000FFCF9C012150F5
:101C5000310908F408958FE99FE00197F1F700C07A
:101C60000000F5CF3BB13B7F2BB124604FB7F89418
:101C700087EE93E0FC010196508168E02BB90000EB
:101C800000C057FF3BB9550F000000C000C000C0A6
:101C90003BB900C06A9591F753E08D3E950751F727
:101CA0004FBF8FE594E00197F1F700C00000089561
:101CB000CF93C82F6FEF81116CE984E290E00E940E
:101CC000B4346FEFC11165E285E290E00E94B43454
:101CD0006FEFC1116EE386E290E00E94B434CF91C1
:101CE0000895CF93DF93CCE0D3E060E0CE010E9473
:101CF000B4342196C11584E0D807B9F7DF91CF91AC
:101D000008951F93CF93DF93962F122F632F843064
:101D1000D8F49430C8F44C30B8F4C42FD0E0CC0FD1
:101D2000DD1F28E1929FC00DD11D112490E6899FEF
:101D3000C00DD11D1124CE0188960E94B434612FAC
:101D4000CE0189960E94B434DF91CF911F910895FE
:101D500084E290E00E9496348C3989F485E290E028
:101D60000E949634853259F486E290E00E949634BF
:101D700091E08E3309F090E0892F8170089580E022
:101D8000FCCF0F931F93CF93DF93843030F56430F3
:101D900020F54C3010F5C42FD0E0CC0FDD1F28E12A
:101DA000629FC00DD11D112430E6839FC00DD11D4F
:101DB0001124CE0188960E949634082F10E0102F2F
:101DC0000027CE0189960E9496349801282BC901DC
:101DD000DF91CF911F910F91089590E080E0F8CFAF
:101DE000462F672F2091320230913302232B91F43A
:101DF000703F39F4403F71F480913A0290913B0278
:101E00000895743038F44C3028F4843018F40E946B
:101E1000C10E089580E090E00895B0E0A0E0E3E115
:101E2000FFE00C9434347C01009112028091110285
:101E3000082BC3E0D0E010E0DC2EC8010C2E02C05D
:101E4000959587950A94E2F780FD09C02197A0F740
:101E5000D12C8D2DCDB7DEB7E7E00C945034B7010F
:101E60008C2F0E94F00E0E94B00A019779F3F1CFF7
:101E7000CF93DF93D82FC92F0E940D0F6D2F7C2F8A
:101E80000E94F00E0E94B00ADF91CF910895FC01EC
:101E90008481882371F087819085009729F00E94C2
:101EA000B00A0E945A0D0895808191810E94380FD6
:101EB000F8CF80E00895A6E0B0E0E1E6FFE00C9402
:101EC000383449835A83392F89819A81332399F091
:101ED000222389F00E940D0F182F682F89819A8183
:101EE0000E94A40C69817A81812F0E94F00E2696AF
:101EF000E3E00C9454340E94700C182FF3CFFC01D3
:101F0000262F87819085009741F44081518162811D
:101F10007381848195810E945B0F08950F931F93B5
:101F2000CF93DF930EE014E0C8EAD1E0CE010E9427
:101F30009634F80161918F01681719F0CE010E9463
:101F4000B4342196CC3CF1E0DF0781F7DF91CF91EB
:101F50001F910F9108950F931F93CF93DF930EE07E
:101F600014E0C8EAD1E0CE010E949634F8018193D2
:101F70008F012196CC3CF1E0DF07A9F7C7E7D3E05A
:101F8000FE0185919491009711F0FC0109952C9622
:101F9000F4E0C730DF07A1F7DF91CF911F910F91D8
:101FA0000895282FCB01283068F43AE0239FB00130
:101FB000112464537E4F4AE050E00E94863490E042
:101FC00080E008958FEF9FEF0895AAE0B0E0EBEE78
:101FD000FFE00C9439349C0197558F3F910509F02F
:101FE00070F4BE016F5F7F4F822F0E94D10F892B4B
:101FF00031F489859A852A96E2E00C9455348091D3
:10200000260490912704F7CF9091390592FB22275F
:1020100020F9281779F080FB92F9909339056091A7
:1020200038057091390584E090E00E94D23482E056
:102030000E941D0D08959C01DA010296FC01459154
:102040005491FC0185919491A817B90758F0F901B2
:102050003496859194910E9476340E948E0F90E080
:1020600080E008958FEF9FEF08959C01CB01BA01A6
:10207000F9013296459154916417750748F0F901BA
:102080003496659174910E94763490E080E00895D2
:102090008FEF9FEF0895AAE0B0E0E1E5F0E10C9446
:1020A00031340FE613E08CEBE82E82E0F82E96E058
:1020B000B92E2EE6C22E23E0D22EAA24A3944AE003
:1020C00050E0B701CE0101960E948634F80139969E
:1020D000DF018B2D1D928A95E9F789819A81D801BC
:1020E00011969C938E938F8112968C9312978D816B
:1020F00013968C931397888514968C9314978985DF
:1021000015968C9315978B819C8117969C938E9333
:10211000169718961C9218978A8587FF3CC01E96C2
:102120001C921E921D9780FF03C0D8011896AC9296
:1021300081FF04C0F80190859260908782FF07C0FC
:10214000D80118969C911897946018969C9383FFD9
:1021500004C0F80190859860908784FF07C0D8017B
:1021600018969C911897906118969C9385FF04C0CF
:10217000F801808580628087FAE0EF0EF11C015F34
:102180001F4F8CE0E81683E0F80609F098CF2A96F6
:10219000EAE00C944D34F801D686C586C4CFAAE097
:1021A000B0E0E5EDF0E10C943334EEECF2E080EADF
:1021B000DF011D928A95E9F7E9E3F4E080E7DF01AA
:1021C0001D928A95E9F78EECC82E82E0D82E7F0109
:1021D0000CE112E0F701D182C0824AE050E0B80180
:1021E000CE0101960E94863488E0FE013196D60128
:1021F00001900D928A95E1F789859A85D70113960A
:102200009C938E931297BAE0CB0ED11CE7E0EE0EB2
:10221000F11C065F1F4F0C3BF2E01F07D9F62A9610
:10222000E8E00C944F3448E050E067E170E088E566
:1022300095E00E94A434109239020895CF92DF9263
:10224000EF92FF92CF93DF9300D000D0CDB7DEB7EF
:102250000E942C05609334027093350280933602FD
:102260009093370220913802211120C02091580507
:10227000322F33703983332319F02695269529831D
:1022800020910D01223009F46FC090F421111EC07D
:10229000109218016093540570935505809356056C
:1022A0009093570581E080930D0105C01982E8CF16
:1022B000233009F465C00F900F900F900F90DF91BD
:1022C000CF91FF90EF90DF90CF90089589810E9489
:1022D0001A098981882379F380910D01823059F799
:1022E00080E00E94DA0C882349F00E94B90581FF42
:1022F00005C04FEF6FEF80E00E94170881E00E9459
:10230000DA0C811105C082E00E94DA0C882329F0E2
:102310004FEF6FEF8FEF0E94170883E00E94DA0CF7
:10232000882349F24FEF6FEF8FEF0E94170883E089
:102330000E94DA0C882309F4BECF0E94B90580FD03
:1023400007C020E040E06FEF81E090E00E941A08B3
:102350000E94B90582FFAFCF20E040E06FEF90E030
:1023600080E00E941A08A7CF398130930C01809138
:102370005805837080930B010E94320E83E093CF47
:102380008091390281110E941311C0905405D090A0
:102390005505E0905605F09057050E942C05DC018C
:1023A000CB018C199D09AE09BF094097A105B10564
:1023B00008F481CF10920D017ECFA8E0B0E0E3EEEB
:1023C000F1E10C942D348E010F5F1F4F88E0F8016E
:1023D00011928A95E9F797E2E92E91E0F92E6801CA
:1023E0002BE2622E21E0722E88248394912CF70137
:1023F00081917F018F3F09F446C0F894E82FE29560
:10240000EF70F0E021A18F70A40102C0440F551FAE
:102410008A95E2F7CA01922F982B91A392A18095F9
:10242000892382A3789400C0EBE2F1E021E030E060
:10243000B12CA12C41914F3F09F44CC0A42FA2957F
:10244000AF70B0E090968C9190E04F7002C095957F
:1024500087954A95E2F780FD3DC0C901A82AB92AAF
:10246000220F331F51E0E733F50721F7F7013197CA
:1024700080818F3F11F00E94A60980EA8A95F1F7CA
:10248000F601B182A082F2E0CF0ED11C6E147F045F
:1024900009F0ADCF48E050E0B80189E092E00E9439
:1024A0006934892BE1F088E0F801A9E0B2E00190FD
:1024B0000D928A95E1F781E0809308020E94490518
:1024C000909307028093060210E0812F2896EEE099
:1024D0000C94493490E080E0C1CF10E021C010910D
:1024E0000802112389F3E0900602F09007020E948F
:1024F00049058E199F09059738F348E050E069E0D7
:1025000072E08AE292E00E946934892B31F388E01C
:10251000E9E0F2E0AAE2B2E001900D928A95E1F7DB
:1025200010920802D2CF80911601813059F5809126
:10253000380587FF27C00E941F0C8093930140E25B
:1025400050E069ED71E082E991E00E946934892BE5
:10255000C1F080E2E2E9F1E0A9EDB1E001900D9275
:102560008A95E1F7E0913605F0913705309749F00B
:1025700086E0809392010480F581E02D82E991E06C
:10258000099508950E941F0C80938A0148E050E04D
:1025900069EF71E08AE891E00E946934892B89F340
:1025A00088E0EAE8F1E0A9EFB1E001900D928A95A8
:1025B000E1F7E0913605F0913705309711F302808D
:1025C000F381E02D8AE891E0DBCFCF93DF93EC013C
:1025D0004A855B856E857F850E94C6058B810E943A
:1025E000E70B8C810E94EF0B0E94931286E0FE01A4
:1025F00011928A95E9F7DF91CF910895CF93DF93F8
:10260000EC018D8181FD14C082608D838091AA05CB
:102610009B81892B8093AA058C810E94F70B0E94D5
:102620009312488559856E857F85CE010E94C60527
:1026300010923505109234058D8180FD03C0CE01C6
:102640000E94E512DF91CF91089580911001877F5C
:102650008093100182E00E94E70B8091100184FFBB
:1026600006C08F7E8093100182E00E94F70B80915C
:10267000100185FF06C08F7D8093100180E20E94CB
:10268000F70B0E94931208951092ED0380911601AA
:10269000813081F48091380587FF0CC0E4E9F1E0D6
:1026A0008EE1DF011D928A95E9F71092AA050E943A
:1026B00093120895ECE8F1E086E0F3CFAAE2B0E0EF
:1026C000E4E6F3E10C9438348CE495E0FC010196E7
:1026D0002091F100208325E084359207B9F780919D
:1026E0004D05893009F45AC0C8F4823009F4B7C0E6
:1026F000833009F486C0813091F18091E80083FF36
:102700003AC180914C0590914D059A3008F033C143
:10271000E92FF0E0EE50FB4C0C941C348A3009F4A5
:102720008DC08B3051F780914C05813231F780910B
:10273000500590915105892B01F78091E800877F22
:102740008093E8000E94240481E090914E0591114D
:1027500001C080E0809316010E944413CECF809187
:102760004C05813A51F68091E800877F8093E8001C
:102770008091500590915105892B61F468E080E4C7
:1027800095E070E00E94D0048091E8008B77809300
:10279000E800B3CF60E090E080E0F3CF80914C059B
:1027A000813209F0AACF80915005909151058D7F1B
:1027B000892B09F0A2CF8091E800877F8093E80001
:1027C0008091E80082FF18C09091F3008091F200A0
:1027D000029731F48091F100813011F0863021F4BC
:1027E0008091F100809315018091E8008B778093B0
:1027F000E8000E94240481CF80914A058111E0CF36
:102800007CCF80914C05813A09F077CF80915005BB
:1028100090915105892B09F070CF8091E800877F56
:102820008093E8008091E80080FFFCCF8091160142
:102830008093F1008091E8008E77D9CF80914C058C
:10284000813209F05ACF8091E800877F8093E800B9
:102850000E94240480914F05809314014ECF8091F3
:102860004C05813A09F049CF8091E800877F809339
:10287000E8008091E80080FFFCCF80911401D8CF60
:10288000803899F0823809F076C0809150058F70B9
:10289000873008F070C08093E9008091EB0085FBE1
:1028A000882780F91092E90006C080914805909130
:1028B0004905911182609091E800977F9093E8001C
:1028C0008093F1001092F1008091E8008E77C4C1EE
:1028D000882309F4B1C1823009F04DC080914E05C2
:1028E0008111B5C1809150058F702FEF280F2630D0
:1028F00008F041C08093E9002091EB0020FFA7C1C0
:10290000933031F48091EB0080628093EB009FC1A3
:102910009091EB0090619093EB0021E030E001C0DA
:10292000220F8A95EAF72093EA001092EA0080913C
:10293000EB008860EACF81111EC010914E051F7711
:102940008091E3008078812B8093E3008091E80000
:10295000877F8093E8000E9424048091E80080FF34
:10296000FCCF8091E30080688093E30082E0111146
:1029700083E080934A058091E80083FF0AC080913C
:10298000E800877F8093E8008091EB00806280936D
:10299000EB00AA96E3E00C9454348058823058F748
:1029A00040914E0550914F054C3D83E05807A1F5ED
:1029B00083E08A838AE289834FB7F894DE01139615
:1029C00020E03EE051E2E32FF0E050935700E49125
:1029D00020FF03C0E295EF703F5FEF708E2F90E015
:1029E000EA30C0F0C7968D939D932F5F243159F73D
:1029F0004FBF8091E800877F8093E8006AE270E033
:102A0000CE0101960E94D0048091E8008B778093DC
:102A1000E800B1CFC096E7CF809150059091510565
:102A2000252F33272330310509F44AC078F52130AA
:102A3000310509F486C08BE590E0EDE7F5E0223042
:102A4000310509F098CF2091E800277F2093E80016
:102A500020915205309153058217930708F49C0189
:102A600040E02115310509F071C041116FC080911E
:102A7000E80082FDC9CF80914A05882329F285307C
:102A800019F28091E80083FFF2CFBECF21323105E9
:102A900009F448C02232310509F06DCF8330910529
:102AA00008F069CFFC01EE0FFF1FEA5BFE4F0190BB
:102AB000F081E02D8D5B9E4FDC018C9190E026C073
:102AC000CA019927423031F18330910568F40097AB
:102AD000B1F0019709F04FCFE4E3F6E0E4918E2FD7
:102AE00090E0E4E3F6E012C0039709F044CFEAEE89
:102AF000F5E0E4918E2F90E0EAEEF5E007C0E4E423
:102B0000F6E0E4918E2F90E0E4E4F6E0009709F41B
:102B100032CF99CFE8E0F6E0E4918E2F90E0E8E044
:102B2000F6E0F4CF8330910508F025CF880F991F88
:102B3000FC01E45BFE4F0190F081E02D89E090E024
:102B400082CF82E190E0E8EDF5E07DCF80914A050B
:102B5000882309F459CF853009F456CF8091E800D5
:102B600083FD52CF8091E80082FD81CF8091E80003
:102B700080FF77CF9091F3008091F200211531050D
:102B800019F08830910550F041E0089709F040E0D5
:102B90008091E8008E778093E80063CF4491409362
:102BA000F1003196215031090196E8CF803809F0C3
:102BB000E2CE8091E800877F8093E80080914B050A
:102BC0008093F10081CE8111D6CE10914E05123046
:102BD00008F0D1CE8091E800877F8093E8001093C1
:102BE0004B050E942404112311F084E005C080915C
:102BF000E30087FDFACF81E080934A0542E061EC73
:102C000081E00E94430442E261EC84E00E944304BC
:102C100042E261EC82E00E94430442E260EC83E025
:102C20000E94430480914A05843021F081E0809322
:102C30001701A1CE82E0FBCF80914E05813009F0D3
:102C40009ACE81E0933009F080E08093490510929C
:102C5000E9008091E800877F8093E8000E942404C7
:102C60008ACEEEE0F4E0128E138E8FEA90E091832C
:102C7000808385E0848F88E893E19383828382E375
:102C800090E0978B868B88EC90E0918F808F158EEB
:102C9000178E168E80E590E091A380A382E082A338
:102CA0000E948E0F0E94441310923905109238052D
:102CB000E9E3F5E08081846080836091380570915C
:102CC000390584E090E00E94D2340E94AB0F089551
:102CD000AEE1B0E0EEE6F6E10C942E34A0901201E5
:102CE000B090130181E090E0909313018093120162
:102CF000912C812CE12C6401F12C15C0F801259157
:102D00003491472D6F2D8E2D0E94810E0E5F1F4F27
:102D100073948CE07812F2CFECE0CE0ED11CF394D9
:102D2000F4E0FF1639F08601000F111F03501C4F0D
:102D3000712CE4CFE39480E3880E911CE4E0EE1262
:102D4000DACF0E9431161A8219821C821B821E82DF
:102D50001D8218861F8288EC90E09A8789870CEC88
:102D600011E04AE050E0B801CE0101960E94D8344B
:102D7000065F1F4F0C31F2E01F0799F77E018BE0D1
:102D8000E80EF11C8AE0F70111928A95E9F74AE012
:102D900050E0B801C7010E94D834065F1F4F0C3BBA
:102DA000F2E01F07A1F77E0185E1E80EF11C89E042
:102DB000F70111928A95E9F78FEF9FEF9A8F898F2C
:102DC00087E08E8F4AE050E0B801C7010E94D834F6
:102DD000065F1F4F0C30F3E01F07A1F7B0921301FD
:102DE000A09212016E96EDE00C944A3480E00E94AD
:102DF000580E60E087E290E00E94B4340E946816AA
:102E00000E94710E81E00E94580E0895CF92DF92C9
:102E1000EF92FF92FB018FEF9FEF4430510508F4D2
:102E200081C0C080D180E280F3800E944413D7012A
:102E3000C601B695A795979587958170282F220F83
:102E4000D701C60181709927AA27BB27822BB7011A
:102E5000A60132E076956795579547953A95D1F753
:102E60004170440F440F842BB701A601E3E076952F
:102E7000679557954795EA95D1F74170440F440FF0
:102E8000440F842BB701A601F4E07695679557951A
:102E90004795FA95D1F741704295407F842BB70151
:102EA000A601A5E07695679557954795AA95D1F720
:102EB00041704295440F407E842BB701A601B6E0D5
:102EC0007695679557954795BA95D1F74170429594
:102ED000440F440F407C842BB701A60197E0769500
:102EE0006795579547959A95D1F747954427479504
:102EF000842B80933805D1FA882780F9880F9D2D7F
:102F00009170892B909139059C7F892B809339058D
:102F1000609138057091390584E090E00E94D234C8
:102F200090E080E0FF90EF90DF90CF9008950E94B6
:102F300044132FEF84E39CE0215080409040E1F760
:102F400000C0000088E19CE00FB6F894A89580933B
:102F500060000FBE90936000FFCF882321F00E9495
:102F6000E70B0E9493120895882339F09091AA05E7
:102F7000892B8093AA050E9493120895882321F03B
:102F80000E94EF0B0E9493120895882321F00E9463
:102F9000F70B0E9493120895882341F09CEF980F3D
:102FA000913A28F40E9458050E949312089590E2E5
:102FB000980F9830D8F7877091E001C0990F8A95E3
:102FC000EAF7892F0E94EF0BEFCFFF920F931F9329
:102FD000CF93DF93F82E00912F0510913005011546
:102FE000110509F449C010922E0510922D0510927A
:102FF0002A0510922B05D8011696CD91DC91CE01B1
:103000009A9581159F4108F4D07ED1E0C11101C08D
:10301000D0E0D8011996ED91FC911A97309731F0D4
:103020001B966D917C9180E00995D823DD2339F0C2
:103030008CEF8C0F813A30F58C2F0E945805FF20C1
:1030400099F0E0912F05F0913005808584FD0CC04A
:1030500080912C05882341F0808191819C01215031
:1030600031092F333E47A0F00E9493121092300591
:1030700010922F0510922C05C801CDB7DEB7E5E000
:103080000C9452340E9493128C2F0E94CC17D7CFED
:103090000E94CB05E9CFCF93DF93EC010E94CC17C0
:1030A000CE010E94780D9E01205E31092830310545
:1030B00010F0CD2B29F40E94BE17DF91CF91089517
:1030C0000E94AD17FACFCF93C82F8823B9F18CEFA8
:1030D0008C0F813AA8F580911601813001F580911D
:1030E000380587FF1CC0EC2FE695E695E695F0E0E5
:1030F000EE56FE4F828190E04C2F477021E030E089
:1031000002C0220F331F4A95E2F782239323892BB3
:1031100081F08C2F0E9458050E9493120AC0ECE89F
:10312000F1E082E991E02191C21799F38E179F0790
:10313000D1F78C2F0E9485050E949312CF9108959C
:1031400080E28C0F8830D0F7C77081E001C0880F13
:10315000CA95EAF70E94F70BEFCF1F93CF93DF9347
:10316000182FEB010E946318209739F4812F0E94D9
:10317000CC17DF91CF911F9108958FE99FE00197C0
:10318000F1F700C000002197EFCF60912E047091FD
:103190002F04893321F060912C0470912D040E943A
:1031A000AD180895B0E0A0E0E8EDF8E10C943134FA
:1031B000FC018AE0B82EDF012D918D012223B9F1A7
:1031C000213009F04EC08181813039F48F010D5FCB
:1031D0001F4F82810E94C51808C0823041F48F01C0
:1031E0000D5F1F4F82810E946318F801E4CF833086
:1031F00039F48F010D5F1F4F82810E94CC17F5CFEC
:103200008F010E5F1F4F843081F482818F010D5F2B
:103210001F4F30E020E0682F6053770BAB016A301E
:10322000710550F02115310599F48111DECFCDB72C
:10323000DEB7EAE00C944D34B29EC001B39E900D0F
:1032400011249A01280F391FF80181918F01E3CFD2
:10325000AFE9BFE01197F1F700C00000215031093C
:10326000E1CFE22FF0E0E858F94FA490822F869545
:103270008695869590E0FC01E859F94FE490277017
:10328000F12C022E02C0F594E7940A94E2F7B1E023
:10329000EB22FF24FC01E85AF94FC490D12C022EF6
:1032A00002C0D594C7940A94E2F7E1E0CE22DD246F
:1032B000FC01E85BF94FC491D0E002C0D595C795F9
:1032C0002A95E2F7C170DD27E114F10419F081EECF
:1032D0000E946318C114D10419F086EE0E9463188D
:1032E00070E060E08A2D0E94AD18C114D10419F07D
:1032F00086EE0E94CC17E114F10419F081EE0E94D1
:10330000CC17CD2B09F471CF8CE264CFB0E0A0E0F4
:10331000ECE8F9E10C942F347C015B01C42FD22F2F
:10332000FC0185818823A9F0409333050E9449055B
:103330009093320580933105C77081E001C0880FFA
:10334000CA95EAF70E94C517CDB7DEB7ECE00C943A
:103350004B3410913305141338C080903105909090
:1033600032050E9449056C01C818D908B701C5018A
:103370000E94E50FC816D90640F5C0E2CD0F1D1713
:10338000B1F01770FF24F3948F2D012E01C0880F28
:103390000A94EAF70E94BE17C83048F48D2F877050
:1033A00001C0FF0C8A95EAF78F2D0E94C517802F68
:1033B0000E94C518C83040F6D77081E001C0880F60
:1033C000DA95EAF70E94BE17BFCFC77081E001C04F
:1033D000880FCA95EAF7F6CFCF93DF93EC010E94EE
:1033E000780D9E01205E31092830310510F02097BC
:1033F00041F40E94C5178C2F0E946318DF91CF9172
:1034000008950E94B417F7CF662329F02091AA05EA
:1034100022602093AA059C0130522115304308F404
:1034200099270E94EC190895B0E0A0E0EAE1FAE1E2
:103430000C943434EC018B01D42E8091100182FF66
:1034400083C0E0903404F0903504EC16FD0619F0CA
:10345000209709F079C0809110018B7F8093100133
:10346000C1E081FD10C08091320490913304980135
:10347000281B390BC1E080910E0190910F01281794
:10348000390708F4C0E0C17080911001C0FB81F9D8
:1034900080931001F70183E0F695E7958A95E1F7AF
:1034A000EE71FF27E251FC4F20813181A7014F705F
:1034B000552781E090E002C0880F991F4A95E2F7F6
:1034C000CC23E9F1822B932B918380838091ED03B0
:1034D00081FF08C08091100180618093100182E01B
:1034E0000E94EF0B8091ED0385FF08C080911001D1
:1034F00080628093100180E20E94EF0B6C2FC70165
:103500000E94041ADD2031F08091290485FF02C059
:1035100086FF2EC080912C0490912D040E94260ECF
:1035200080913404909135049C0130522115304330
:1035300008F499270E944B180E94251315C0809506
:10354000909582239323C0CFCE0190528115904352
:10355000A0F4CE0199270E944B18809134049091D9
:1035600035048C179D0741F3109333040093320404
:10357000CDB7DEB7E7E00C945034CE01ECCFAAE033
:10358000B0E0E5ECFAE10C9429347C01DC011496FE
:103590008C91882309F465C161E0C7010E947F0F07
:1035A0008C01F7018581882331F180913405909158
:1035B0003505009701F108171907E9F0FC01FF270D
:1035C000887F9927892B09F069C0A4E0EE0FFF1FBF
:1035D000AA95E1F7E25BFD4F8581846085831183C5
:1035E0000083CF010E94FE121092AA0561E0C7017C
:1035F0000E947F0F8C01D70115968C91882309F4C6
:10360000BBC0C80197578038910508F0E8C0D02E9C
:10361000BFE0B01708F415C18FEF93E00E94963415
:1036200081110FC10CE013E0D1103BC0F4E04F2E2C
:103630009E012F5F3F4F390133243A94D301E42D8B
:103640001D92EA95E9F76801FFEFCF1ADF0AC8017A
:103650000E9496348983882309F4F3C08130D1F421
:10366000580122E0A20EB11CC6010E949634582EC9
:103670008A83882309F4E5C08FEF850D8330F8F441
:10368000680133E0C30ED11CC5010E9496348B83C0
:103690008823F1F1C3010E94D2183AC0F0E0E0E0C3
:1036A0009BCF0115E4E01E0709F4CBC0C8010E94BE
:1036B0009634811101C0DA940F5F1F4FB5CF8BEFA5
:1036C000850D833068F5480143E0840E911CC501E7
:1036D0000E9496348B8364018823D1F0680154E002
:1036E000C50ED11CC4010E9496348C83882381F0BE
:1036F0008B819C818130AFEF9A0710F0982F88273B
:10370000B6E05B1639F0E7E05E1639F00E94C12A98
:10371000860194CF0E949C2AFBCF0E94232AF8CFD7
:10372000F4E065015F12F4CFC5010E949634B82E13
:10373000680124E0C20ED11CC80103960E94963491
:10374000BB2009F47EC0882309F47BC08150990B0B
:10375000389E9001399E300D11244B2D4150550B50
:10376000CA01820F931F019798F2AFE9BFE011974A
:10377000F1F700C00000F7CF6801E7E5DE1AFFEFC0
:10378000CF16D10409F058F564E472E08C2D0E9444
:10379000D10F892B21F5C60174E0880F991F7A9506
:1037A000E1F7FC01E25BFD4F22812130A1F5209180
:1037B000440230914502232B91F020914602309132
:1037C0004702232B61F02091480230914902409139
:1037D0004A0250914B02242B352B232B21F1D70188
:1037E00015963C90332009F440C00E35BCE71B070A
:1037F00029F10F35ECE71E0741F00D35FCE71F07F7
:10380000A1F5809100018823C9F01092000180E0A9
:103810000E94E51716C0223011F72091480230911E
:103820004902232BE1F2FC01ED5AFD4F20812E7F4E
:103830002083825B9D4F0E94FE12D1CF81E0809356
:1038400000018091D801877061F0D70115968C91A5
:10385000882339F08091390582FF03C082E00E94FD
:103860001D0D2A96E2E10C944534809100018823D5
:1038700009F462C6380120EE621A71082090030232
:103880008091D501282A8091ED03282A38E063161B
:10389000710408F087C098012770332781E090E019
:1038A00001C0880F2A95EAF7332009F478C0282A46
:1038B000D7018D919C910E94700C21E030E029018C
:1038C00002C0440C551C8A95E2F7E0912F05F09157
:1038D0003005F887EF832091B2013091B3013A8728
:1038E00029876FE6C62E63E0D62EB12CA12CB8E056
:1038F000AB16B10409F481C6211005C0D601129699
:103900008C91811189C0F601838190E084219521F9
:10391000892B09F481C08085982F977009F487E07E
:10392000F8E06F16710408F057C0332009F450C056
:1039300086958170882309F46FC0D6018D909C9084
:103940000815190519F4332009F466C0EF81F885CC
:10395000EC15FD0509F460C0D6011D96ED91FC91B2
:10396000309721F08081882309F456C0622DC6016A
:103970000E942306882309F44FC00815190509F091
:10398000F2C60115110509F4F3C63110F3C6E98535
:10399000FA858E169F0609F03FC0312CEBC6809544
:1039A000282286CF332009F411C61093B301009367
:1039B000B2010E942C056093260570932705809321
:1039C00028059093290510922E0510922D0570CF91
:1039D00082FB882780F9AECF3320F1F08170AACF27
:1039E0000E94CC17ECC60497813A910548F48C2DBF
:1039F0000E948505332009F49FC50E94931221CFB0
:103A00000E9493128FE39CE90197F1F700C0000038
:103A10008C2D0E946318EECF9FEFA91AB90AAFE070
:103A2000CA0ED11C64CFDC012D913C910217130703
:103A300009F07CC531107CC510922C0580E00E94F5
:103A4000E5177AC5902F812FBCC5F90144855585AE
:103A500066857785C9010E94C605D60115968C91A9
:103A600081FFDFC5C6010E94E51280913405909167
:103A700035050817190709F0D4C5109235051092BD
:103A80003405CFC590911001892F8E7F90FF816002
:103A9000809310010E942513EFC5809110018E7F45
:103AA000F7CF809110018F7E013E110531F0053E68
:103AB000110501F5809110018F7D80931001809197
:103AC000100180FF1CC0D70115968C91083211059A
:103AD00008F50E31110508F06EC098012450310927
:103AE0002A31310548F1882351F0109235041092A3
:103AF000340405C0C80190528115904300F7F801C5
:103B0000E851FC47E730F10508F0C0C5E450FB4C34
:103B10000C941C340933110558F40D32110518F4B6
:103B20000B32110501F79091290492FDDCCF08C0FA
:103B300004361105C1F3D7CF9091290494FDD3CF5A
:103B4000882309F4A9C0809103029091ED03892B89
:103B50008D7FB1F1109235041092340480912904C4
:103B600081FD2EC0F80143E0F695E7954A95E1F70F
:103B7000EE71FF27E251FC4F98012F70332781E04F
:103B800090E002C0880F991F2A95E2F780959095E2
:103B900020813181822393239183808360E0C80157
:103BA0000E94041A809103028D7F0E94BE0B82E066
:103BB0000E941D0D46CE9091290493FD94CFC0CF55
:103BC00089E0F701AEE1B2E001900D928A95E1F74C
:103BD00010922102109220028091340490913504B9
:103BE00008171907D1F52091290425FF36C0309117
:103BF000100131FF02C026FF30C020913204309105
:103C000033046501C21AD30AB7010E94E50FC81632
:103C1000D90618F58091ED0381FF08C0809110014D
:103C200080618093100182E00E94EF0B8091ED0390
:103C300085FF08C08091100180628093100180E2AE
:103C40000E94EF0B609110016695617080913404C1
:103C5000909135040E94041AF4CD80910302D09013
:103C6000ED03D82AD1FADD24D0F88D7F0E94BE0B57
:103C70001093350400933404B0923304A0923204BC
:103C80008D2D880F8460D0901001BD2DB97FDB2E63
:103C9000D82AD09210018BCF970140E0B501C8011E
:103CA0000E94141ACECD06E221EE41EE6AE17CE7D5
:103CB000C7010E948619C5CD07E225EE45EE6BE1EE
:103CC0007CE7F6CF06E221EE40EE68E17CE7F0CF3C
:103CD00007E225EE44EE69E17CE7EACF06E221EE59
:103CE00042EE6CE17CE7E4CF07E225EE46EE6DE1C3
:103CF0007CE7DECF08E221E045EE6EE17CE7D8CF3D
:103D00008091380581608093380560913805709105
:103D1000390584E090E00E94D2340E94441391CD92
:103D200080913905886080933905EFCF80913805FF
:103D30008260E9CF809138058460E5CF80913805B5
:103D40008860E1CF809139058160EDCF80913905A0
:103D50008260E9CF809138058061D5CF80913805A8
:103D60008062D1CF809138058064CDCF0E9444130A
:103D7000809138058068C7CF809138058C60C3CFAB
:103D8000809139058360CFCF809138058E7FBBCF7E
:103D900080913905877FC7CF809138058D7FB3CF5C
:103DA000809138058B7FAFCF80913805877FABCF6F
:103DB000809139058E7FB7CF809139058D7FB3CF44
:103DC000809138058F7E9FCF809138058F7D9BCF66
:103DD000809138058F7B97CF0E94441380913805DE
:103DE0008F7791CF80913805837F8DCF8091390572
:103DF0008C7F99CF8091380582FB992790F921E03B
:103E0000922790FB82F990FB83F97DCF8091390551
:103E1000982F909591708E7F892B90FB81F983CF9D
:103E200090913805892F8F7B96FF80646CCF0E941C
:103E3000441390913805892F97FB87F9805863CFF9
:103E400061E08EE090E00E94B4345FCF60E0F9CF93
:103E500090913805892F8F7E94FF806154CF909187
:103E60003805892F8E7F90FF81604DCF9091390565
:103E7000892F877F93FF886056CF8091B40181118D
:103E800004C089E20E945805B8CD85E3FBCF0E94AB
:103E90000708D7CC882389F10E94D507D2CC882384
:103EA00089F10E94A507CDCC882389F10E9489075A
:103EB000C8CC882389F10E946D07C3CC882389F17F
:103EC0000E944007BECC8091ED038272F801E0545D
:103ED000F847ED30F10540F5ED5FFA4C0C941C34D9
:103EE0000E94FA0780913902816080933902A9CC3F
:103EF0000E94EE07F7CF882379F20E94E207A1CC57
:103F0000882379F20E94B0079CCC882379F20E9422
:103F1000970797CC882379F20E947B0792CC88235D
:103F200079F20E944E078DCC0737FCE71F0709F096
:103F300094C481E00E94100DCEC382E0FBCF222307
:103F4000A9F00A353CE7130709F4BCC008F093C098
:103F500001305CE7150709F4B3C003308CE718079C
:103F600009F4A8C001151C4709F497C0F70187811F
:103F70009085009709F4AAC00E94B00A182F092F53
:103F800086E0F701DE01119601900D928A95E1F726
:103F9000F701B580C680C2943FE0C3228091D8016A
:103FA000877001F1AB2CBB20F1F0892F807F80342A
:103FB00061F080E2810F8830A8F0892F807E803206
:103FC00021F4123078F0CC2069F08091390582FF1D
:103FD00009C082E00E941D0D8091D8018770AA243B
:103FE000A3948111A12C902E92942FE09222F8E0BC
:103FF0009F1609F468C1F91508F47FC021E029155E
:1040000008F08FC08EE0890D8F70823008F4BFC039
:10401000E92DE850FF0B349718F40E94B905A12C44
:10402000812F902F0E945A0D882341F0BB2009F464
:104030004EC2CC2009F442C21092B901AA20B1F0BC
:104040008091D80180FD12C0D70115961C928695EB
:10405000869586950E94340DC7010E94BF1A8091F3
:10406000D8018695869586950E94100D60E0C7015F
:104070000E947F0FF6CB0B35ACE71A0729F10C3500
:104080001C4709F073CF8091390582FB882780F99E
:1040900091E089270E94041069CF0E944413EFEF3A
:1040A000F4E32CE0E150F0402040E1F700C00000D4
:1040B0000E94020E6FEF7FEF90E080E00E94D2340A
:1040C0000E94971781E0E6CF80E0E4CF8581C08031
:1040D000D180882369F0C6010E940D0F182F682F28
:1040E000C6010E94A40CB601812F0E94F00E44CF9D
:1040F000C6010E94700C182FF6CF39E0931609F410
:1041000051C186E0890D8F70823008F081CF123F57
:1041100009F059C1802F8F71B11052C10E94340D26
:1041200077CF402F4F70D42E802F807F19F0D294FC
:1041300090EFD922BB20A9F0DD2059F080E2810F59
:10414000883010F0111107C08D2D0E94F70B0E94CE
:104150009312812F3FC08091AA05D82AD092AA0538
:10416000F6CF812F0E94CC17DD2009F451CF80E2D9
:10417000810F883010F0111104C08D2D0E94EF0BBB
:1041800003C08D2D0E94E70B0E94931241CF502F48
:104190005F70D52E802F807F803219F0D29480EF0F
:1041A000D822112349F0113009F46CC0BB2009F466
:1041B00078C0CC20E9F0CDCF8091390582FD14C0C4
:1041C000BB2059F0DD2029F08D2D0E94F70B0E94B5
:1041D000931280E00E9463181BCF80E00E94CC17EE
:1041E000DD2009F415CFC9CFBB2091F1C11004C067
:1041F0008D2D0E94C5170CCF81E0C81211C0809090
:1042000003028D2D8821D81609F402CF0E9449059A
:104210009093020280930102D828D0920302F8CE34
:1042200080912A04823008F4F3CEC812F1CE8D2D8D
:104230000E94C5178D2D0E94D20B8091D5019D2D16
:104240009823D91609F4E4CED82AD092D501E0CE2D
:10425000C1100AC08D2D0E94BE178D2D0E94D20B59
:104260008D2D0E945C0CD4CE80912A04823008F4FB
:10427000CFCE91E0C912CCCE8091ED038D2109F40F
:10428000C7CEE8CF80913004BB2021F08C1508F414
:10429000BFCEAECFC81608F0BBCE8D2D0E94BE1784
:1042A000B7CECC20D1F380912E0490912F041933F6
:1042B00021F080912C0490912D040E94260E812FD4
:1042C0000E94CC17A5CE802F837099F5B110A0CE97
:1042D000412F429546954770440F440F812F8F70B0
:1042E000042E01C0880F0A94EAF7212F207114FFD1
:1042F00007C02FE030E001C0220F4A95EAF7209571
:10430000302F369536953370323071F0333051F0AE
:1043100040911102313029F0822B84230E94570DE5
:1043200077CE842B822BFACF282B80911102822703
:10433000F5CF8695BB2011F0802F8170882309F47A
:1043400067CE412F429546954770440F440F812F09
:104350008F70042E01C0880F0A94EAF7212F207174
:1043600014FF07C02FE030E001C0220F4A95EAF7A2
:104370002095302F369536953370323071F03330CA
:1043800051F040911202313029F0822B84230E9497
:10439000ED0C3ECE842B822BFACF282B809112027B
:1043A0008227F5CFA02FAF70DA2EBB2029F08A2FFD
:1043B0000E94340D812F1DCF812F0E94BE178D2D9D
:1043C0000E94100D25CE133F60F4103FB9F0113F4D
:1043D00081F0BB2009F46DC0C110BBCE802F8F715E
:1043E0009DCE133F11F1143FA1F78091390582FD55
:1043F00028C0802F8F71BB2019F390CE809130049C
:10440000BB2079F0C81608F003CE202F2F7181E071
:1044100090E001C0880F2A95EAF79091120289274F
:10442000B6CF8C1508F4F4CDF0CF80E0BB2009F4B2
:10443000AECF81E0902F9F7101C0880F9A95EAF767
:10444000A6CF80912A04823008F1BB20A9F0909178
:10445000D8019770943041F40E94FD0B802F8F712A
:104460000E94100DA12CD4CD63E0C816D8F7802F80
:104470008F710E94400DF6CFC81620F00E94FD0BF0
:1044800064E0F5CF81E00E941D0DECCFBB2031F040
:1044900063E0802F8F710E94400DBACD81E00E94B1
:1044A0001D0DB1E0BC1508F0B3CD82E00E941D0DDA
:1044B000AFCDC110F8CE802F8F7182CF8091B8011F
:1044C0008093B7018091ED038093B801B7CD1E8230
:1044D00020E049815A816B817C818D8190E00E942E
:1044E0005B0F9C010091ED03CC2029F01092B901E3
:1044F0000093B801A3CD8091B5019091B601281722
:104500003907B1F780912B0483FFF0CF8091B90177
:10451000882361F38091B7010E94C517812F0E9403
:10452000C5188091B7010E94BE17E0CF332021F05B
:10453000FC01808585FF82CAC80197558F3F910590
:1045400011F008F06EC0C801887F9927892B09F007
:1045500078C9F801FF2754E0EE0FFF1F5A95E1F7E5
:104560009F01225B3D4F6901D70115968C91ED5A51
:10457000FD4F908180FB90F99083882309F465CAF0
:104580000E94490590931D0280931C02F6018281CE
:104590008F5F82838091AA059091ED03892B83839D
:1045A0008091030284834681578166857785C601A1
:1045B0000E94C605D60115968C9181FF43CA90E0F2
:1045C00080E090933405809335052BC08091B20133
:1045D0009091B3010817190781F41092B30110925A
:1045E000B20110922605109227051092280510920C
:1045F000290510922E0510922D0580912F0590917E
:104600003005009709F498CFE8E06E16710408F0C1
:104610000ACA622D0E942306811103C081E00E9414
:10462000E5178091290480FF6ACA0E9449055C0150
:10463000F7018581882309F434CA8091100182FF33
:1046400008C02EE132E040E0B50190E080E00E9439
:10465000141A0431FCE71F0709F41FCA05312CE7BF
:10466000120709F40FCA03313CE7130729F48091BC
:104670001001816080931001C80190528115904310
:1046800008F01DCA1092350410923404F7012581F8
:104690002223C1F110923305C8019057839708F582
:1046A00084E090E00E949E34909339058093380511
:1046B000F801E150F047E232F10508F021CBE05F6C
:1046C000FA4C0C941C340737BCE71B0709F0BFC039
:1046D00081E00E94340D43E062E081E00E94F00C32
:1046E000B0C80631ECE71E0791F08091ED038272AD
:1046F000F801E052F847EB30F10528F7EE5CFA4C90
:104700000C941C340631FCE71F0709F0DCCB8091C8
:10471000ED03982F9A7A3091280430FF04C0482F77
:10472000447409F090E031FF04C0482F417109F052
:1047300090E032FF04C0482F487809F090E033FF42
:1047400003C0827209F090E0222309F496CB81E045
:10475000911101C080E08093B40189E2911185E359
:104760000E9485054AC98114910409F010C9312CB1
:10477000912C812C80E00E94E517D0923005C092E8
:104780002F0581E080932C058FE08A9DF0018B9DA1
:10479000F00D1124E159FC4F858180932A053110D9
:1047A0000EC08114910459F0808191819C012450A4
:1047B0003109213A310508F013C90E9458058FE0EC
:1047C0008A9DF0018B9DF00D1124E159FC4FC680AC
:1047D000D780C6019A9581159F4110F420EED22210
:1047E00099249394C60101978F339E4708F0912C2A
:1047F0008FE08A9DD0018B9DB00D1124A159BC4F33
:104800001996ED91FC911A97309731F01B966D91A6
:104810007C9181E0099598229920B1F08FE08A9DE2
:10482000F0018B9DF00D1124E159FC4F8681978199
:104830000E94780D80932B05C60148E06416710430
:1048400008F0D1C80E94CB050E949312D3C8083744
:104850003CE7130739F482E03CCF08374CE71407F4
:1048600009F46BCBC801805E9245809708F067CB56
:1048700021117CCB0F7181E090E09C0102C0220FDE
:10488000331F0A95E2F78901622F83E090E00E94CE
:10489000B434802F0E94570D0C94211CB0E0A0E08E
:1048A000E4E5F4E20C9434348091D201807F09F085
:1048B00054C08091D101882309F44FC0E091A9052B
:1048C00089E0D82E809160058E1709F446C00E2F1E
:1048D00010E0ED9DF0011124EF59FA4F84818823F7
:1048E00009F440C0D09EE001D19ED00D1124FE01FC
:1048F000EF59FA4F91818091CD01981333C0908187
:104900008091CC0198132EC0858181112BC0E2804B
:10491000F3808091CE019091CF01E81AF90A60E00E
:104920008CEC91E00E947F0F6CEC71E00E94E50F2F
:10493000E816F906B8F48091D2018F7080618093F7
:10494000D201C959DA4F88818F70806188838CECDD
:1049500091E00E94BF1A0E94660CCDB7DEB7E7E077
:104960000C945034F8013196E770ACCFAFE0B0E072
:10497000ECEBF4E20C942C348C0186E0F801DE01BF
:104980001A9601900D928A95E1F7D80114967C90C1
:1049900014971596EC908CECA82E81E0B82E80919F
:1049A000D00181112AC0711003C0FF24F3941CC0F0
:1049B000EE20F9F0C8010E94470FF82E8823C9F0B5
:1049C00089E0F801ACECB1E001900D928A95E1F735
:1049D0008091D001813031F48091CC019091CD0152
:1049E0000E94380F0E944E248F2D2F96EFE00C94DA
:1049F0004834C8010E94BF1AD8CFF80150806180A6
:104A0000C280D38060E08CEC91E00E947F0FF09038
:104A1000D1018091CE019091CF014601881A990A67
:104A200060E08CEC91E0FF2009F405C10E947F0F4B
:104A30006CEC71E00E94E50F8816990608F0D1C071
:104A4000772009F4B2CF8091D201382F307F2091A6
:104A5000CD01D80111969C911197311171C0291384
:104A60001FC02091CC019C9129131AC04091D30101
:104A70005091D40117962D913C914217530781F420
:104A8000E11054C08F7080618093D2018CEC91E072
:104A90000E94BF1A8091D201F8018683F12CA4CF25
:104AA000E11044C0662D852D0E94B603E82E8823B0
:104AB00081F080912B0480FFF1CF8CEC91E00E947B
:104AC000BF1A89E0ECECF1E0DF011D928A95E9F76D
:104AD000E5CF5A866B868A859B850E94380F292FE1
:104AE00022952F70903458F49F70223088F09923CB
:104AF00099F0F8019681907F79F4FE2C75CF2A5FAA
:104B00002F70223068F0C8010E94BF1AEF2CF5CF39
:104B1000992311F0882389F3805E883070F3F3CFF6
:104B2000803F58F3815F833040F3EDCF8091D20115
:104B300081608093D20180912B0481FDAFCFBDCFE6
:104B4000291320C02091CC019C9129131BC04091B6
:104B5000D3015091D40117962D913C91189742178B
:104B6000530781F4E1100EC016968C93C8010E9481
:104B7000BF1A89E0F801ACECB1E001900D928A9582
:104B8000E1F732CFC8010E94470F882309F431CFE3
:104B9000EE2009F42ECF8091D2018032B8F020911E
:104BA000CC013091CD013A832983DC82CB82909174
:104BB000D0019D831E828F838091D3019091D40177
:104BC00099878887CE0101960E94BF1A89E0F80173
:104BD000ACECB1E001900D928A95E1F70E944E2471
:104BE000E4CE8091D201982F907F09F466CF772090
:104BF00009F4DBCE2091CD01F80191812913C2CFB8
:104C00002091CC0190812913BDCF4091D3015091C7
:104C1000D401278130854217530709F0B3CFE11043
:104C2000B1CF8683C8010E94BF1A89E0D5011D92C9
:104C30008A95E9F7D9CE0E947F0F6CEC71E00E9453
:104C4000E50F8816990608F055C0772009F4ADCE17
:104C5000FE2CEE2009F4CDCE9091CD01F80181819A
:104C600098133AC09091CC018081981335C020915F
:104C7000D3013091D401878190852817390761F5D8
:104C8000A090CE01B090CF0160E08CEC91E00E944A
:104C90007F0F80912B0482FD6CCFCA18DB088091B6
:104CA000260490912704C816D90608F062CF809197
:104CB000D20180FD5ECF982F907F09F45ACFD801A2
:104CC00016968C931697903F09F450CF982F907FAB
:104CD000905F8F70892B48CFC8010E94470F8111C8
:104CE00075CF8091D20181608093D201C8010E946A
:104CF000BF1A7ACE89E0F50111928A95E9F774CE50
:104D0000A2E1B0E0E6E8F6E20C9437340A871B87AC
:104D10002C873D874E875F87688B798B8A8BCE0186
:104D20000A960E94B62481110CC089E0FE013A96D1
:104D3000DE01119601900D928A95E1F74E854111A1
:104D40000BC019E08091A90590916005891332C0CC
:104D50006296E4E00C9453342091600530E0C90180
:104D60000196877099275091A90558171906A1F047
:104D70004D8399E0929FD001939FB00D1124AF59BC
:104D8000BA4FFE01319601900D929A95E1F780930A
:104D900060050E94660CD5CF0E94441310926005F6
:104DA0001092A90589E0ECECF1E0DF011D928A95F3
:104DB000E9F7C7CF819FC00111248F599A4F0E94F4
:104DC000B624882329F28091A90590E00196877086
:104DD00099278093A905B6CFEF92FF920F931F9367
:104DE000CF93DF938091A904882361F0E091380488
:104DF0008DE0F82E8091A904E81748F01092A904DC
:104E000010923804CDB7DEB7E6E00C945134EE24AE
:104E1000E394EE0EE0923804CE2FD0E0EF9DF00147
:104E20001124E655FB4F84818823E9F08781908522
:104E3000892B21F481859285019659F40081118195
:104E400022813381448155816681778180850E94EA
:104E50008026FC9EF001FD9EF00D1124E655FB4FCF
:104E600014821092AA05EE2DC5CF10921D05109246
:104E70001C051092110180911B0580931A050E9458
:104E80006F060E94EC260895B0E0A0E0EAE4F7E2A5
:104E90000C942A34C0911A0597E0992E01E010E095
:104EA0002DE0322E34E0432E5524539480911B057F
:104EB0008C1309C00E94EC260E946F06CDB7DEB7A6
:104EC000E1E10C944634D0E0FE01EE0FFF1FEE5EF0
:104ED000FA4F80819181989ED001999EB00D112446
:104EE000A75CBB4F14962C911497211159C0609068
:104EF000A904EAEAF4E030E020E0812C5D01261507
:104F000008F04CC0E384F484D501CD90DC906FEFC1
:104F10007FEF712C472D50E0DA01AA0FBB1FAC0DBB
:104F2000BD1D0D90BC91A02D109731F0EA16FB0627
:104F300009F4BA017394EECF6F3F7607A9F1D80157
:104F400002C0AA0FBB1F6A95E2F78A2AB801072C94
:104F500002C0660F771F0A94E2F7AB014150510976
:104F60008416150601F5329EF001339EF00D1124D2
:104F7000E655FB4F989ED001999EB00D1124A75C79
:104F8000BB4F12962D913C91139730872783448213
:104F9000108211829287818715965C920E94430647
:104FA0002196C37083CF14822F5F3F4F3D96A7CFCA
:104FB000AEE1B0E0EEEDF7E20C9429344B8B5C8B64
:104FC0006D8B7E8B8F8B192F988F882309F471C07E
:104FD00020E00E945B0F9C01112349F01092B9015F
:104FE0009093B6018093B5011092AA050AC08091F2
:104FF000B5019091B6018217930719F481E080936F
:10500000B901188A198A1A8A86E0FE017396DE01B0
:105010001A9601900D928A95E1F78091390582FFE9
:105020001EC08091100490911104892BC1F00E9440
:1050300049052091D6013091D701821B930B209115
:105040001004309111048217930720F08091D80149
:1050500082FFF5C10E94040C81110E94B30B8E8562
:105060008823D9F061E0CE010A960E947F0F61E0AB
:10507000CE010A960E947F0F61E0CE010A960E943F
:105080007F0F6C018F8520E5C2162CE7D206A9F4AC
:10509000882349F181E0809311010A851B852C85C5
:1050A0003D854E855F85688979898A890E94802639
:1050B000D3C0992309F4A5CF97CF31E5C3163CE7B8
:1050C000D30629F4882379F00E943527E6CF42E5FC
:1050D000C4164CE7D40639F4882329F080911101D5
:1050E0008111F2CFD7CF89E3E82E84E0F82E512C3E
:1050F000B12CA12C22242394312CBE016F5F7F4F51
:105100007A8F698FF7014081518188248A94982C85
:1051100020E0822F90E0FC01EE0FFF1FE40FF51F4F
:10512000608171816115710531F0C616D70609F4E9
:105130004C012F5FEECF10E0FFEF8F169F0609F4B2
:105140004CC0F701448110911101812F411180E081
:10515000182F1170F701458086819F85992309F4E6
:10516000FDC0112309F4FAC0609024047090250456
:10517000411013C0A101082C01C0440F0A94EAF7A2
:10518000842B868380913604909137048615970589
:1051900020F47092370460923604C10102C0880F77
:1051A000991F2A95E2F70197F7012681281719061A
:1051B000A1F480901C0590901D058114910409F4C0
:1051C0004FC00E944905881999096816790608F0A8
:1051D00047C021E0F701248311E0512AFFEFAF1A05
:1051E000BF0A27E0E20EF11C30E1A316B10409F07A
:1051F00089CF8F85882309F40EC1552009F40BC18E
:105200000E94490590931D0580931C058091A90477
:10521000883010F591E0980F9093A90499E0FE0171
:105220003A96DE01119601900D929A95E1F74DE0C4
:10523000849FC001112486559B4F29E0FE013196C1
:10524000DC0101900D922A95E1F72FEF3FEFFC0171
:1052500032872187D486C3866E96E2E10C9445346A
:1052600080911A0550911B05982FF0E0E0E085131E
:1052700014C090931A05EE16FF0609F4AECF90E025
:10528000FC01EE0FFF1FEE5EFA4FB182A082019685
:105290008370992780931B05A0CF682E712CF30192
:1052A000EE0FFF1FEE5EFA4F2081318147E0429FF3
:1052B000D001439FB00D1124A75CBB4F6D917C9131
:1052C00011977E8F6D8F40E020E030E0E32FF0E01B
:1052D000EE0FFF1F6D8D7E8DE60FF71F8080918092
:1052E00081149104E1F0F7010190F081E02DFC8F31
:1052F000EB8F20E005C08616970609F4412F2F5F3B
:10530000E22FF0E0EE0FFF1F6B8D7C8DE60FF71F95
:10531000608171816115710571F73F5FD7CF4423BB
:10532000D1F0F701231708F0FD0121E02483EE16E8
:10533000FF0621F490931A05142F4FCF981305C040
:10534000AE17BF0711F49F5F937093012F5F3F4F1C
:10535000822F83708CCFF0E0E0E0F7CF90E0411037
:1053600020C0B10102C0660F771F2A95E2F79B01AA
:10537000215031092817390731F4442309F449C071
:10538000C5010E944306C101082C01C0880F0A9480
:10539000EAF7982F9095F701868189238683142D4B
:1053A0001CCFAC01082C02C0559547950A94E2F732
:1053B0009C012150310982239323892B31F540FF31
:1053C00024C0F70182819381892BE1F0E98DFA8D68
:1053D00027E011922A95E9F70E944905282F8B832F
:1053E0009C8334E03D83F70182819381782F888705
:1053F000998709811A813C8144E05E816F81892F00
:105400000E948026F7011582BECFF42FF1704F2E37
:10541000BACF412EB8CF90911A0580911B059817ED
:1054200029F00E944427511017CF37CE0E94EC2656
:1054300010921D0510921C050E946F06F4CF82E0A9
:105440000E941D0D07CEA6E0B0E0E9E2FAE20C945E
:10545000393490933B0280933A02811520E29207FF
:1054600030F40E944B182696E2E00C94553480EFFD
:1054700089838A830E9449058160682F9C838B837E
:1054800049815A817C8181E090E00E94D827EBCF4E
:105490000F931F93CF93DF938C01EB0164E472E0D1
:1054A0008C2F0E94D10F892BA1F480912C04909114
:1054B0002D040E94260EDD27C45CDD4F8881F80193
:1054C000128218828330F1F048F4813059F0823032
:1054D00081F0DF91CF911F910F9108958430B9F041
:1054E0008530B9F78091440290914502009789F385
:1054F00006C08091460290914702009799F30E945E
:10550000232AE7CF8091480290914902F6CF8091FB
:105510004A0290914B02009791F7209144023091FA
:105520004502809146029091470221153105F1F222
:10553000009729F7C901E3CFA6E0B0E0E2EAFAE27A
:105540000C94393490933B0280933A02811520E207
:10555000920730F40E94EC192696E2E00C94553440
:1055600080EF89838A830E9449058160682F9C832C
:105570008B8349815A817C8181E091E00E94D82708
:10558000EBCFCF93DF93D82FC92F0E949C2A809115
:105590002C0490912D040E94260E8D2F9C2F0E948A
:1055A000232ADF91CF9108950F931F93CF93DF9319
:1055B0008C01862F64E472E00E94D10F892BB1F434
:1055C000C0914402D0914502209781F0F801828178
:1055D000833051F4CE010E94C12ACE010E94C12A1B
:1055E000CE010E94C12A02C08430D0F7DF91CF9152
:1055F0001F910F9108950F931F93CF93DF938C0109
:10560000EB0164E472E08C2F0E94D10F892B09F02A
:105610005CC0FE01FF27D80112968C911297E45CC2
:10562000FD4F8130B9F415969C9192FF02C08083A2
:105630000AC090FFFCCF82E0808380914602909167
:1056400047020097B9F48091440290914502009777
:10565000E1F110C08230B9F515968C9182FD28C019
:1056600080FD0BC083E080838091480290914902C5
:10567000009701F10E949C2A28C084E080838091D9
:105680004A0290914B020097A9F7809144029091B1
:1056900045020097F9F00E94C12A8091460290913C
:1056A0004702009739F78091440290914502E2CF7A
:1056B00085E080838091440290914502009729F013
:1056C0000E94C12AF0CF86E08083DF91CF911F91A5
:1056D0000F9108958091460290914702B8CFA6E0BD
:1056E000B0E0E5E7FBE20C9437340E9449058C01F9
:1056F00080910402909105028017910781F0198230
:105700001A820E944905682F49815A81792F80E0C9
:1057100090E00E94D8271093050200930402269679
:10572000E4E00C9453341F920F920FB60F921124A1
:105730002F933F934F935F936F937F938F939F9399
:10574000AF93BF93CF93DF93EF93FF93D091E90093
:10575000DF708091EC00C82FC17080FDC0E810920E
:10576000E9008091F000877F8093F00078940E9498
:105770005E131092E9008091F00088608093F00041
:10578000CD2BCF70C093E900FF91EF91DF91CF91C6
:10579000BF91AF919F918F917F916F915F914F9149
:1057A0003F912F910F900FBE0F901F9018951F9251
:1057B0000F920FB60F9211242F933F934F935F9345
:1057C0006F937F938F939F93AF93BF93EF93FF93C9
:1057D0008091E10082FF09C08091E20082FF05C054
:1057E0008091E1008B7F8093E1008091DA0080FF5F
:1057F00024C08091D80080FF20C08091DA008E7F85
:105800008093DA008091D90080FFA9C080E189BD32
:1058100082E189BD09B400FEFDCF81E080934A0595
:1058200080913F05811109C00E94D4030E94750434
:105830008091E20084608093E2008091E10080FF2B
:105840001AC08091E20080FF16C08091E2008E7F36
:105850008093E2008091E20080618093E200809179
:10586000D80080628093D80019BC85E080934A05F7
:1058700083E0809317018091E10084FF2FC0809125
:10588000E20084FF2BC080E189BD82E189BD09B4BB
:1058900000FEFDCF8091D8008F7D8093D80080914D
:1058A000E1008F7E8093E1008091E2008F7E809303
:1058B000E2008091E20081608093E20080914B05DC
:1058C000882309F452C084E080934A0580914A05F8
:1058D000843009F452C081E0809317018091E10087
:1058E00083FF2CC08091E20083FF28C08091E100FB
:1058F000877F8093E10082E080934A0510924B05F8
:105900008091E1008E7F8093E1008091E2008E7FA4
:105910008093E2008091E20080618093E20042E0A7
:1059200060E080E00E9443048091F00088608093F2
:10593000F00081E08093170180931601FF91EF91B1
:10594000BF91AF919F918F917F916F915F914F9197
:105950003F912F910F900FBE0F901F90189519BC7B
:1059600010924A0510923F0568CF8091E30087FDB1
:1059700002C081E0A9CF83E0A7CF82E0ADCF7894C9
:105980001F921FB61F9211248F939F93AF93BF93C3
:1059900080913B0590913C05A0913D05B0913E055D
:1059A0000196A11DB11D80933B0590933C05A093EA
:1059B0003D05B0933E05BF91AF919F918F911F9090
:1059C0001FBE1F9018951F921FB61F9211248F9310
:1059D0009F93AF93BF9380913A05811113C080913B
:1059E0003B0590913C05A0913D05B0913E05419647
:1059F000A11DB11D80933B0590933C05A0933D05EF
:105A0000B0933E05BF91AF919F918F911F901FBEA4
:105A10001F901895CDB7DEB7E2970FB6F894DEBFAA
:105A20000FBECDBF85B7806885BF85B7806885BF4D
:105A300084B7877F84BF0FB6F894A89580916000E3
:105A4000886180936000109260000FBE80E890E053
:105A50000FB6F89480936100909361000FBE81E0CF
:105A60008093170184EA99E09093890180938801DB
:105A70000E941B070E94CF100E944B100E94AB0F88
:105A8000529A5A988FE891E00197F1F700C0000010
:105A90000E94D4030E9475048091E2008460809388
:105AA000E200789480914A058823A1F01091E900E2
:105AB0001F709091EC00892F817090FD80E8182B69
:105AC0001092E9008091E80083FD0E945E131F7030
:105AD0001093E90082E084BD93E095BD9AEF97BDF5
